:020000041000EA
:1000000000B5324B212058609868022188439860DF
:10001000D860186158612E4B002199600221596106
:100020000121F02299502B49196001219960352056
:1000300000F044F80222904214D00621196600F024
:1000400034F8196E01211966002018661A6600F04E
:100050002CF8196E196E196E052000F02FF8012189
:100060000842F9D1002199601B49196000215960AB
:100070001A491B48016001219960EB211966A021F2
:10008000196600F012F800219960164914480160C1
:100090000121996001BC002800D000471248134993
:1000A000086003C880F30888084703B5996A0420EC
:1000B0000142FBD001200142F8D103BD02B5186610
:1000C0001866FFF7F2FF186E186E02BD00000240BE
:1000D000000000180000070000035F00212200005C
:1000E000F4000018222000A00001001008ED00E03C
:1000F00000000000000000000000000074B24E7A12
:1001000000000420E3010010C3010010E903001007
:10011000C1010010C1010010C1010010C101001097
:10012000C1010010C1010010C10100104503001001
:10013000C1010010C1010010C9030010D503001057
:10014000CD010010CD010010CD010010CD01001037
:10015000CD010010CD010010CD010010CD01001027
:10016000CD010010CD010010CD010010CD01001017
:10017000CD010010CD010010CD010010CD01001007
:10018000CD010010CD010010CD010010CD010010F7
:10019000CD010010CD010010CD010010CD010010E7
:1001A000CD010010CD010010CD010010CD010010D7
:1001B000CD010010CD010010CD010010CD010010C7
:1001C00000BE00BE00BE00BE00BE00BE00F03FF894
:1001D000103800BE00202049086006C881F3088856
:1001E00010471E48006800282DD10CA40ECC002911
:1001F00002D000F010F8F9E719491A4A002000E08F
:1002000001C19142FCD1184988471849884700BE6E
:10021000FDE701C901C29A42FBD3704744DC0110DB
:10022000C000002064100020F4EB01100000042046
:1002300000000420F4EB0110001004200010042042
:100240000000000070470A4811F0C0FC0047EFF3BF
:100250000580C0B27047000008ED00E0000000D04B
:1002600070100020F4B00020CD02001065F70010DF
:1002700057560000F8B5C046F8BC08BC9E4670470B
:10028000F8B5C04610B5064C2378002B07D1054BB6
:10029000002B02D0044800E000BF0123237010BDF2
:1002A000C01500200000000084020010044B10B5AF
:1002B000002B03D00349044800E000BF10BDC04636
:1002C00000000000C415002084020010164B002B13
:1002D00000D1144B9D46402292029A1A9246002168
:1002E0008B460F461348144A121A13F005FF0F4BA2
:1002F000002B00D098470E4B002B00D098470020D1
:10030000002104000D000D48002802D00C480FF019
:100310002CFA13F05BFA200029000BF039FC0FF0E7
:1003200021FAC04600000800000004200000000080
:10033000F1BA001070100020F4B000206BF700102C
:10034000000000007046C0082CD3EFF309808169DB
:1003500002390978002929D101B50FC8B8470CBC6A
:1003600003C29E461E4B06CB91421ED0083B1A602C
:10037000002909D0EFF3098020388863F0C0444693
:100380004D4656465F46F0C0906B1030F0C8A04610
:10039000A946B246BB4680F309882038F0C802203F
:1003A000C0430047EFF30880D1E770470D4A136858
:1003B0009942FAD801B5890053589C460FC8E047C6
:1003C0000CBC10609E46704701B50AF057FE03BC96
:1003D0008E46C7E701B50AF00FFE03BC8E46C1E7A3
:1003E0006C04002070B60110102304E0202302E00A
:1003F000302300E040239C46F0B404AE7546E80884
:1004000001D3EFF309860E4F0FCE0FC70FBC0FC7F6
:100410004046494652465B460FC71DCE3100A60AEC
:1004200000D304316E0900D248311FC7EFF30980B1
:100430006946EFF3148663C7604601490EF02EFD4E
:1004400064B0002001480421014B184770060020C9
:10045000DD1B011002B471464908490009564900E4
:100460008E4402BC7047C04602B471464908490038
:10047000095C49008E4402BC7047C04603B4714613
:10048000490840004900095A49008E4403BC70479E
:10049000002243088B4274D303098B425FD3030AC3
:1004A0008B4244D3030B8B4228D3030C8B420DD3D6
:1004B000FF22090212BA030C8B4202D31212090264
:1004C00065D0030B8B4219D300E0090AC30B8B42A2
:1004D00001D3CB03C01A5241830B8B4201D38B0350
:1004E000C01A5241430B8B4201D34B03C01A5241F5
:1004F000030B8B4201D30B03C01A5241C30A8B4238
:1005000001D3CB02C01A5241830A8B4201D38B0222
:10051000C01A5241430A8B4201D34B02C01A5241C6
:10052000030A8B4201D30B02C01A5241CDD2C30938
:100530008B4201D3CB01C01A524183098B4201D3B4
:100540008B01C01A524143098B4201D34B01C01A9F
:10055000524103098B4201D30B01C01A5241C30817
:100560008B4201D3CB00C01A524183088B4201D386
:100570008B00C01A524143088B4201D34B00C01A72
:100580005241411A00D20146524110467047FFE7DE
:1005900001B5002000F0F0F802BDC0460029F7D0F8
:1005A00076E7704703460B437FD4002243088B4213
:1005B00074D303098B425FD3030A8B4244D3030BEA
:1005C0008B4228D3030C8B420DD3FF22090212BAAF
:1005D000030C8B4202D31212090265D0030B8B422B
:1005E00019D300E0090AC30B8B4201D3CB03C01A15
:1005F0005241830B8B4201D38B03C01A5241430BF0
:100600008B4201D34B03C01A5241030B8B4201D3DF
:100610000B03C01A5241C30A8B4201D3CB02C01A4A
:100620005241830A8B4201D38B02C01A5241430AC2
:100630008B4201D34B02C01A5241030A8B4201D3B1
:100640000B02C01A5241CDD2C3098B4201D3CB0158
:10065000C01A524183098B4201D38B01C01A524107
:1006600043098B4201D34B01C01A524103098B420B
:1006700001D30B01C01A5241C3088B4201D3CB00F6
:10068000C01A524183088B4201D38B00C01A5241D9
:1006900043088B4201D34B00C01A5241411A00D289
:1006A00001465241104670475DE0CA0F00D04942F2
:1006B000031000D34042534000229C4603098B4262
:1006C0002DD3030A8B4212D3FC22890112BA030AEA
:1006D0008B420CD3890192118B4208D3890192116C
:1006E0008B4204D389013AD0921100E08909C309F1
:1006F0008B4201D3CB01C01A524183098B4201D3F3
:100700008B01C01A524143098B4201D34B01C01ADD
:10071000524103098B4201D30B01C01A5241C30855
:100720008B4201D3CB00C01A524183088B4201D3C4
:100730008B00C01A5241D9D243088B4201D34B00DF
:10074000C01A5241411A00D20146634652415B1021
:10075000104601D34042002B00D549427047634602
:100760005B1000D3404201B5002000F005F802BD47
:100770000029F8D016E770477047C046D0400B1CE0
:10078000D1409C46203AD34018435242634693409E
:10079000184370479140031C90409C46203A934078
:1007A000194352426346D340194370478446101C94
:1007B00062468C46191C634600E0C0461FB501F036
:1007C0009BFF002801D40021C8421FBD10B501F0D5
:1007D000F3FE4042013010BD10B501F08DFF00283E
:1007E00001DB002010BD012010BDC04610B501F096
:1007F00083FF002801DD002010BD012010BDC04690
:1008000010B501F015FF002801DC002010BD01200B
:1008100010BDC04610B501F00BFF002801DA002022
:1008200010BD012010BDC0468446081C6146FFE78C
:100830001FB500F0DDFC002801D40021C8421FBD17
:1008400010B500F05FFC4042013010BD10B500F063
:10085000CFFC002801DB002010BD012010BDC046E8
:1008600010B500F0C5FC002801DD002010BD0120FE
:1008700010BDC04610B500F06DFC002801DC002062
:1008800010BD012010BDC04610B500F063FC00286B
:1008900001DA002010BD012010BDC0461C2101233B
:1008A0001B04984201D3000C10391B0A984201D353
:1008B000000A08391B09984201D30009043902A231
:1008C000105C40187047C046040302020101010198
:1008D0000000000000000000002B15D1002A13D1F9
:1008E000002906DB01DC002806D00020C0434108B7
:1008F00002E080210906002007B4024801A1401847
:10090000029003BD75FEFFFF03B4684601B502986F
:1009100000F030F9019B9E4602B00CBC7047C04607
:10092000002B11D1002A0FD1002900D1002802D0BC
:100930000021C943081C07B4024802A140180290D4
:1009400003BDC04635FEFFFF03B4684601B50298FB
:1009500000F04EF8019B9E4602B00CBC7047C046AA
:10096000F0B5CE46474615042D0C2E0080B5070481
:10097000140C3F0C9946030C7E435D43674363436D
:100980007F19340CE4199C46A54203D980235B02ED
:100990009846C4444B4643435143250C36046544B2
:1009A000360C2404A4195B19591820000CBC90467D
:1009B0009946F0BD70B500220C4B04000D00FFF706
:1009C00029FF002804D12000290002F0D3FC70BDCB
:1009D000064B00222000290002F068F902F0CAFC50
:1009E00080231B069C466044F1E7C0460000E041BE
:1009F000F0B54F464646D646C0B5040082B00D005D
:100A0000914698468B422FD82CD04146484602F05A
:100A100029FE29000600200002F024FE331A9C461D
:100A2000203B9A4600D576E04B46524693401F0045
:100A30004B46624693401E00AF4228D825D053460D
:100A4000A41BBD41002B00DA7BE0002200230092B2
:100A50000193012352469340019301236246934040
:100A6000009318E08242D0D9002200230092019323
:100A70000A9B002B01D01C605D600098019902B0B8
:100A80001CBC90469946A246F0BDA342D7D900228D
:100A90000023009201936346002BE9D0FB079846A0
:100AA000414672080A437B0866460EE0AB4201D11C
:100AB000A2420CD8A41A9D41012024196D410021A5
:100AC000013E24184D41002E06D0AB42EED9013E26
:100AD00024196D41002EF8D1009801995346001950
:100AE0006941002B23DB2B005246D3402A00644689
:100AF000E2401C0053461500002B2DDB2600574614
:100B0000BE40330026006746BE403200801A99413D
:100B100000900191ACE7624620239B1A4A46DA40D6
:100B20006146130042468A4017001F4380E7624631
:100B300020239B1A2A0066469A402300F340134361
:100B4000D4E76246202300219B1A002200910192E3
:100B50000122DA40019280E72023624626009B1A98
:100B6000DE402F00B0466646B74046463B00334362
:100B7000C8E7C046F0B583B016001F000090019191
:100B800002F07CFD04000D0002000B003000390073
:100B9000FFF7E6FE009A019B121A8B41089920008C
:100BA0000A604B60290003B0F0BDC046F8B5474667
:100BB000CE4643025B0A4400C20F9C464800DD005B
:100BC0004B02240E5B0A000E80B598462600914623
:100BD000C90FDB00271A8A4229D0002F15DD002813
:100BE0004AD1002B00D095E0ED08FF2C00D188E021
:100BF0006B025B0AE6B25B02F605580A3043D20785
:100C000010430CBC90469946F8BD002F00D087E0F9
:100C1000601CC0B2012800DCB6E0EE1A720100D5FB
:100C2000C5E0002E3DD1002200260023E3E7002F7F
:100C300000DC96E000285DD0FF2C60D08022D2043A
:100C400013431B2F00DDECE02022D21B1800934041
:100C5000F8405A1E93410343ED186B017BD50134D4
:100C6000FF2C00D1B7E0012207262A406B089A4DDD
:100C70001D4015432E4029E0FF2CB5D08022D20420
:100C800013431B2F00DDB2E02022D21B190093403A
:100C9000F9405A1E93410B43ED1A6B015BD5AD0130
:100CA000AE093000FFF7FAFD05388640844265DC66
:100CB000041B330020200134E340041BA640751EB2
:100CC000AE41334307261D0000241E4001224B463F
:100CD0001A40002E04D00F232B40042B00D00435E3
:100CE0006B0100D480E70134E6B2FF2C2FD1FF2640
:100CF000002380E7002B52D1FF2C00D074E70A00BC
:100D0000ED08002DF3D08023DB032B435B025B0A4D
:100D1000FF2670E7013F002FBED0FF2CB1D163E763
:100D2000002C47D0FF2869D08024E4047A42254370
:100D30001B2A00DDC5E02C002026D440B21A9540C5
:100D40006A1E954125435D1B04008946A5E7AB015A
:100D50005B0A50E7002401224B461A406B07BAD1C8
:100D600042E7002F3BD10134E0B201284ADDFF2CDD
:100D7000BDD00726ED186D082E40A7E70723574D75
:100D8000241A35401E40A1E7002C1BD1002D6ED146
:100D9000002B00D19AE00A001D003C0024E7013F2F
:100DA000002F00D158E7FF2C00D04AE7A7E75E1BD1
:100DB000894676E7002D1CD10A00FF281FD00400C9
:100DC0001D0011E7002D5DD1002B17D180230022DB
:100DD000DB03FF260FE70A00FF2600230BE7002CAA
:100DE00021D1002D66D1FF28E9D11D0087E701231D
:100DF00052E77A1CA7D0FA43FF2899D10A001D00B8
:100E0000FF24F1E6002E21D1002D4FD0002B4CD035
:100E1000ED186B019ED5314B07362E4001241D4045
:100E200054E7012318E7FF28DFD08024E4047F4241
:100E300025431B2F4DDC2026F61B2C00B540FC4023
:100E40006A1E95412543ED18040006E7002DCCD01D
:100E5000002B00D153E780216046C903084203D02C
:100E60004046084200D11D000121114047E7002BF8
:100E700000D1B9E6EA1A500125D507265D1B2E40A0
:100E8000894623E7FF24002B00D1ADE6802260468F
:100E9000D203104204D04046104201D11D008946C1
:100EA00001224B46FF241A409EE62B00DD080A0073
:100EB00000249DE67A1CC6D0FF43FF28B9D11D004F
:100EC0001DE701253FE7151E00D044E7002200235F
:100ED00091E60125B7E7C046FFFFFF7DFFFFFFFB5F
:100EE000F8B557464E464546DE464402E0B5460054
:100EF0008846640A360EC70F002E63D0FF2E24D01A
:100F00008023E400DB041C43002399469B467F3E7C
:100F1000434642465D02D20F5B006D0A1B0E9046AF
:100F2000924665D0FF2B55D080220021ED00D204DF
:100F30007F3B1543F61A43464A467B400F2A00D9A9
:100F40008DE06D48920082589746002C54D10823BA
:100F50009946063BFF269B46DAE7002553460229C1
:100F60001BD0032900D1BFE0012928D030007F30F9
:100F7000002820DD6A0704D00F222A40042A00D06E
:100F800004352A0103D530005C4A80301540FE2824
:100F900003DCAC01640AC2B201E0FF220024640257
:100FA000D205600ADB07104318433CBC90469946C3
:100FB000A246AB46F8BD0122101A1B287CDD002298
:100FC0000024ECE7002C1DD104239946033B0026A6
:100FD0009B469DE7FF3E002D20D1022143464A4615
:100FE0007B400A430F2AD8D845489200825897463A
:100FF000002D19D10121F1E70C239946093BFF2669
:101000009B4685E72000FFF749FC7626431F9C405E
:1010100000237642361A99469B4679E74A460323CF
:101020001A439146032186E72800FFF737FC431F48
:1010300036189D40763600217DE780240023E403A6
:10104000FF22ACE700258023DB031C4228D01D4291
:1010500026D12B435C02640A4346FF229FE76201CC
:101060006C01A24224D21B210025013E0127100061
:101070006D005200002801DB944201D8121B3D4351
:1010800001390029F3D11400621E944125436DE714
:10109000BA46594625005346022900D061E77CE74D
:1010A0008023DB031C436402640A3B00FF2276E7D3
:1010B000121B1A210125D9E79E362A00B5402C00C3
:1010C000C240651EAC411443620704D00F22224087
:1010D000042A00D00434620103D4A401640A00226B
:1010E0005DE7012200245AE78024E4032C436402D4
:1010F000640AFF2253E7C04660930110FFFFFFF729
:10110000A093011070B542004E024C0045026D0ADA
:10111000120EC30F760A240EC90FFF2A0FD0FF2C20
:1011200011D00120A24200D070BDB542FCD18B424B
:101130000DD0002AF8D12800451EA841F4E701206F
:10114000002DF1D1EBE70120002EEDD1E9E70020E1
:10115000EAE7C04670B54A004E02450244006D0AF7
:10116000240EC30F760A120EC90FFF2C15D0FF2ACA
:101170000ED0002C15D1002A01D1002E1CD0002D3C
:1011800014D08B4227D00220013B1840013870BD9B
:10119000002EEED002204042F9E7002DFAD1FF2ABE
:1011A0000ED0002A0ED1002EEDD00BE00123013924
:1011B000994308000130EAE70020002DE7D0E2E77C
:1011C000002EE7D18B42DED1944205DD0221581E6C
:1011D00008400138DBE70024A24204DCB542D2D843
:1011E0000020B542D3D2581E012398430130CEE7E8
:1011F00030B5420044024D02C30F4800640A120E8B
:101200006D0A000EC90FFF2A12D0FF280CD0002A49
:1012100012D1002819D1002D17D1002C2BD002207B
:10122000013B1840013826E0002DF0D0022022E0DA
:10123000002CFBD1FF281FD000281FD1002D1DD16D
:101240000220013B1840013815E0002C0ED08B42E3
:10125000E5D10022904204DCAC42E0D80020AC4250
:1012600009D2581E01239843013004E001230139BB
:1012700099430800013030BD002DD7D18B42CED12B
:101280008242E7DD0221581E08400138F3E7C046DC
:10129000F0B54E4657464546DE46E0B543025B0A8A
:1012A000450083B00F1C99462D0EC60F002D57D058
:1012B000FF2D24D08020DB00C0041843002381468A
:1012C0009A469B467F3D7C027A00FB0F640A120E11
:1012D000984623D0FF2A4BD0E30080240020E4046A
:1012E0007F3A1C43AD186B1C474601935346774029
:1012F0003A000F2B48D87D499B00CB589F46002BC6
:1013000000D085E008339A46063B9B467C027A0073
:10131000FB0FFF25640A120E9846DBD1002C00D08B
:1013200090E0524601231A4392460120DBE74C46E7
:1013300058461700022824D0032800D1CFE000220D
:10134000002301284DD15802D205400AFF0710435F
:10135000384303B03CBC90469946A246AB46F0BD2C
:10136000002B5BD104239A46033B00259B46AAE74A
:10137000FF35002C60D1524602231A4392460220C8
:10138000B1E7FF220023DEE74B461B0C9C464B4691
:101390002604360C180461463300220C6446000C07
:1013A00043434E435043544380191A0C121896423B
:1013B00003D9802149028C4664441B041B0C100491
:1013C000C01883015E1EB341800E1843130C1B1915
:1013D0009B0103431C00230179D5012362081C40B3
:1013E0001443019A7F32002A4DDD630704D00F2396
:1013F0002340042B00D00434230103D53C4B019A35
:101400001C408032FE2ABCDCA3015B0AD2B29AE700
:101410000C239A46093BFF259B4654E71800FFF72B
:101420003DFA4A46431F76259A4000236D42914675
:101430002D1A9A469B4646E7524603231A43924684
:10144000032050E72000FFF729FA431F2D1A9C4084
:10145000763D002047E780230027DB03FF2272E769
:10146000424666E74C463200584662E780234A46C9
:10147000DB031A4222D01C4220D123435B025B0AC9
:101480004746FF225FE701239A1A1B2A21DC23002B
:101490000199D3409E318C401A0023005C1EA34169
:1014A00013435A0704D00F221A40042A00D00433F1
:1014B0005A0111D49B015B0A002244E780234A466B
:1014C000DB0313435B025B0A3700FF223BE7019516
:1014D00087E70022002336E70122002333E7802339
:1014E000DB0323435B025B0AFF222CE7E09301103E
:1014F000FFFFFFF7F8B54746CE464400C20F80B560
:1015000047024802400A8446664648007F0A240E85
:10151000F60025009046FB00000EC90FB146FF28DB
:1015200000D185E001267140261A914257D0002E45
:1015300043DD002800D07FE04946002900D1AAE021
:10154000013E002E00D0F7E05B1A5A0100D48BE078
:101550009B019C092000FFF7A1F9053884408542D2
:1015600000DDD3E0451B230020200135EB40451B67
:10157000AC40621E94412343072400251C400122F5
:1015800041460A40002C04D00F211940042900D004
:101590000433590100D480E00135ECB2FF2D00D0B6
:1015A000A3E0FF2400235B02E405580AD20720438E
:1015B00010430CBC90469946F8BD002E74D1601CB7
:1015C000C0B2012800DCA7E04A469C1A620100D59F
:1015D000B6E0002CBED1002200240023E3E7002E59
:1015E00000DC85E0002846D0FF2C49D08022484608
:1015F000D2041043814601221B2E09DC20204C46D8
:10160000801B84404A462000F240441EA041024311
:101610009B185A0128D50135FF2D00D1A8E00122E1
:10162000072494491A405B080B4013431C40A6E76B
:10163000002E00D078E775E7FF2C54D08022494671
:10164000D2041143894601221B2E09DC2021484681
:10165000891B88404A460100F240481E81410A43E6
:101660009B1A5A0100D573E7012241460A405907E7
:1016700000D089E711E04846002858D1FF2C0CD152
:10168000DB08002B00D18CE78020C00303435B0202
:101690005B0AFF2487E7FF2C25D0DB08FF2DF0D065
:1016A0005B025B0AECB27EE7002C4DD0FF2818D01D
:1016B0008024E404724223431B2A00DDC4E01C00A2
:1016C0002025D440AA1A93405A1E934123434A46E8
:1016D0000500D31A884638E7721CF8D0F243FF2879
:1016E000EAD10A004B46FF25D7E79B015B0A5AE780
:1016F000002E41D1651CE9B2012945DDFF2D00D145
:101700004FE707244B445B081C4038E707225A4B3D
:101710002D1A2340144032E7002C1DD1002B7AD122
:101720004B46002B00D191E00A000025B5E7013EB1
:10173000002E19D14B446CE7FF2C84D1FF25ACE778
:101740004A468846D41A05E7002BC5D10A00FF286F
:10175000C8D005004B46A0E7002B49D14B46002BD3
:1017600077D00A00FF2598E7FF2C00D043E787E7F2
:101770000A00FF24002316E7002C15D1002B57D1B7
:10178000FF28E6D14B467BE7002C20D1002B57D019
:101790004946002953D04B445A0168D50724364A9C
:1017A0001C4001251340EAE6FF28EBD08022D2043A
:1017B000764213431B2E53DC2025AD1B1A00AB4091
:1017C000F2405C1EA34113434B44050021E7002B6C
:1017D000D8D04946002900D152E78021C9030F42E1
:1017E00000D14DE76046084200D049E74B4647E745
:1017F0004846FF25002800D14FE78022D203174238
:1018000004D06046104201D14B4688460122414631
:10181000FF250A4041E7484600281FD01A1A500108
:1018200020D54A460724D31A1C4088460025A6E640
:10183000741CC9D0F643FF28BCD14B4620E799461B
:101840004B460025DB082BE7012340E7002200235D
:10185000A9E680230022DB03FF24A4E600251CE781
:101860000123B1E7002AF1D013000025FCE6002592
:10187000FAE6C046FFFFFF7DFFFFFFFB42024B027F
:1018800040004900520A5B0A090E000EFF2806D0EC
:101890000020FF2902D11800431E98417047FE38EE
:1018A000002AFBD1F4E7C04641024200C30F490AB7
:1018B000120E00207E2A0DD99D2A0CD8802000040B
:1018C0000143952A0ADC9620821AD1404842002B17
:1018D00000D108007047034A9818FBE7963A9140F8
:1018E000F4E7C046FFFFFF7F70B500283DD0C31767
:1018F000C5185D40C40F2800FEF7D0FF9E22121AC3
:10190000962A07DCD2B2082833DD08388540680201
:10191000400A23E0992A0BDD052329001B1AD94030
:1019200003001B339D402B005D1EAB4119430D008E
:10193000052801DD431F9D402B000F490B406E071A
:1019400009D00F263540042D05D004335D0102D5A2
:101950009F220B40121A9B01580AD2B24002D205B4
:10196000400AE4071043204370BD002400220020F9
:10197000F4E76802400AF1E7FFFFFFFBF0B54F46CE
:101980004646D6460C000903C0B5490A470F5E001B
:1019900039431F03DB0F9C4665007B0A570F1F432B
:1019A0006D0DE40F760DA146C000B846D200AB1B0A
:1019B00064457BD0002B5FDD002E00D0A4E03E000C
:1019C000164300D112E15E1E002E00D09EE1871A60
:1019D0004346B84280410125C91A4042091A0B0208
:1019E00000D431E149024E0A002E00D16EE13000F0
:1019F000FEF754FF0300083B1F2B00DD61E12022AE
:101A00003900D21A9E40D1409F400E439D4200DDD6
:101A100051E15D1B6B1C1F2B00DD7CE12021C91AED
:101A20003D0030008F408840DD40791E8F413100FD
:101A300007222843D940002507433A40002A09D00D
:101A40000F233B40042B05D03B1DBB42BF417F42CF
:101A5000C9191F000B0200D426E26A1CC64B5505AB
:101A60006D0D9A4200D106E1C44AFF080A405307AF
:101A700052023B43120B8EE0002B00D0B8E06B1CEF
:101A80005B055B0D012B00DC30E1871A4346B84251
:101A9000B641CB1A76429E1B330200D54CE13B0087
:101AA0003343A1D100220024002570E0002B00DC8C
:101AB000E5E0002E00D183E0AF4EB54260D0802635
:101AC00036043743B846382B00DC3EE14346134327
:101AD0001F007A1E97413F188742804140420918F3
:101AE0000B0200D4B0E0A44B01359D4200D1C3E00D
:101AF000A24A7B080A4001210F401F435108D30727
:101B000007221F433A4099E79B4EB54238D08026C2
:101B100036043743B846382B00DDDCE01F2B00DCF1
:101B200030E11E004746203EF740BC46202B04D043
:101B30004026F31A46469E403243170063467A1EFB
:101B400097411F43CCE0002B00D104E243461343EE
:101B500000D159E14B07C00818438023C9081B0373
:101B6000194208D04546ED081D4204D14346D0082D
:101B7000590708432900420FC9007F4D1143C00097
:101B80004B07CA087C49C00803438D4268D0120342
:101B90006D05120B6D0D002112031800130B0A0DB9
:101BA00012051A43764B2D0513402B435B00E407C7
:101BB0005B08234319001CBC90469946A246F0BD21
:101BC0003E00164312D05E1E002E00D000E18718A2
:101BD0008742804141444042091801250B0233D518
:101BE000022585E764463300414610001D00C7E723
:101BF000002D00D0DAE00C000443F3D05C1C00D1CF
:101C00009FE15D4CA64200D12FE1DB43382B00DD84
:101C100066E11F2B00DD83E120240500E41A0F009C
:101C2000DD40D940A0404346A7405B1A441EA04176
:101C300098462F433843171ABA42924143465242BC
:101C4000991A64463500CAE607223A40002A00D0B5
:101C5000F6E64B07CA084849FF083B438D4296D138
:101C60001900114300D19EE1802109030A431203A8
:101C7000120B414D8FE71500002200238BE7002B4C
:101C800000D0C7E06B1C5F057F0D012F00DCF1E089
:101C9000394DAB4200D1B9E085180A00854289412F
:101CA0004244494251180722CF076D082F43490883
:101CB0003A401D00C2E607223049ED1A31403A4051
:101CC000BCE63E002838864000279FE63800FEF735
:101CD000E5FD20308EE6434613431F007A1E9741F0
:101CE000C71BB84280414042091A78E60E003B000B
:101CF00006431343002D61D1002E00D0F4E0002BE9
:101D000000D11BE164463900100039E71A4FBB428D
:101D10007AD03300FFE630001F3DE840202B03D08F
:101D20004021CB1A9E4037437B1E9F410722074329
:101D30003A400021002589E7171A4346BA42B641C6
:101D4000591A76428E1B64464EE61F2B00DDADE02D
:101D500020264746F61AB740B9461700B246DF407C
:101D60004E463E4337005646B240561EB2411743D8
:101D70004246DA408918AEE6FF070000FFFF7FFF0A
:101D8000FFFF0F8020264746F61AB740B9461700D6
:101D9000B246DF404E463E4337005646B240561EDE
:101DA000B24117434246DA40891A99E77F4CA6426E
:101DB0005BD0802424045B42214327E7002E0CD112
:101DC000002B00D1CBE0644639001000774DD7E6F8
:101DD000764FBB4218D0330075E6002B14D04B076A
:101DE000C00818438023C9081B03194207D0FC0808
:101DF0001C4204D17907D0080843E14621004C4633
:101E0000420FC9001143C000684DB9E61D00002211
:101E10000023C0E6002D5BD10D00054300D1E2E6B2
:101E20005D1C00D1B0E0614DAE421FD0DB43382BCA
:101E300071DC1F2B00DD96E020250F00ED1AAF406E
:101E4000B9460700AA46DF404D463D432F005546A0
:101E5000A840D940451EA84188440743BF1897426F
:101E600092415142414435003AE6644635004146CC
:101E7000100085E60B000343002D00D063E6002B25
:101E8000F5D04346134300D17AE687188742804154
:101E900007224144404209183A400B0200D4D5E6DB
:101EA000434B01351940C9E5380069E61E00474635
:101EB000203EF740BC46202B04D04026F31A46466D
:101EC0009E403243170063467A1E97411F4302E645
:101ED000364DAE42CAD080252D045B422943A6E789
:101EE0000843411E8841A6E6002B00D148E6871A28
:101EF0004346B842B641CB1A76429E1B33024BD5BD
:101F0000171A4346BA429241591A5242891A072275
:101F100064463A4092E501430F00791E8F419DE7E8
:101F20001C000F00203CE740202B03D04024E31A84
:101F300099400843411E884138437CE60022002432
:101F400025E6171A4346BA429241591A5242891A53
:101F50006446350043E541461000144D10E68022EA
:101F60000024120380E61D000F00203DEF40BC4618
:101F7000202B03D04025EB1A994008430700634605
:101F8000781E87411F4369E7871897429B41414468
:101F90005B42C9183500A3E53B003343CED007228E
:101FA00031003A4052E600231A00F4E5FF07000032
:101FB000FFFF7FFFF0B55746DE464E464546E0B58B
:101FC000834607000E03480085B092461C00360B7E
:101FD000400DCD0F002800D19DE0954B984239D09F
:101FE0008023F6001B041E43924A7B0F334399461D
:101FF000944603006344009300230026FF000293ED
:1020000023031B0B98466300E40F52465B0D0194BB
:1020100000D1B3E086498B4200D19EE04246D10018
:10202000802212040A435146490F11438B468149CD
:1020300052468C4600996344CB1A0021D20000938B
:102040002B0063409A460F2E00D905E17A4BB6006B
:102050009B599F465B463343994600D0B8E0022324
:102060000826002700900293CAE7CB463A0002995F
:102070000195019B9A46022927D0032900D180E2CD
:10208000012944D06D49009B8C4663441C00002C00
:1020900038DD530700D013E2D2085B46DB0109D5D7
:1020A0005946674B19408B468021C9008C46009BDE
:1020B00063441C00634B9C4207DC5B4664055F077E
:1020C0005B0217431B0B620D02E000230027584AF6
:1020D00000211B031C0B0B0D1B05234314055A4A3F
:1020E000380013401C4353466400DB0764081C435C
:1020F000210005B03CBC90469946A246AB46F0BDD7
:102100000122524201231B1B382B00DCADE10022CF
:1021100000230027DCE75B46334399465ED0002E60
:1021200000D18AE13000FEF7B9FB03000B3B1C2B0A
:1021300000DD7BE11D22D31A5A460100DA4008393E
:102140008E4013005F46334399468F403F4B002635
:102150001B1A00930023029352E7414653460B4358
:102160003B499B468C46009B634400935B46002B97
:102170003BD1022300221E43022161E74346134361
:102180009B4637D04346002B00D162E14046FEF724
:1021900085FB03000B3B1C2B00DD53E10200414695
:1021A000083A914088461D21CB1A5146D9400B0070
:1021B00041460B439B46534693401A00009B2549DA
:1021C0009C46604403008C4663440093002137E73B
:1021D0000323B14600900C26029311E700230093DD
:1021E00001330426002702930AE70323C3461E4354
:1021F000032125E701331E430022012120E70023AC
:102200009A46802300271B03094A61E78023494639
:102210001B03194200D1E2E05946194200D0DEE02A
:102220000B431B0317001B0BA246014A50E7C04695
:10223000FF07000001FCFFFF20940110FF030000D6
:10224000FFFFFFFEFE070000FFFF0F800DFCFFFFFA
:1022500001F8FFFFF3030000D94500D9CBE000D11E
:10226000C6E03C0048460027009B013B00935B46CC
:10227000160E1B021E431302984633041B0C99468C
:10228000310C0191FEF78AF94A4642430B04210CB6
:10229000050019438A4207D98919013D8E4203D8A6
:1022A0008A4201D9851E8919881A0199FEF776F9A3
:1022B00009048C464A46210464464243090C030043
:1022C00021438A4204D98919013B8E4200D8F1E0AA
:1022D0002D041D43AB464346891A4246280C12047E
:1022E0001D0C5B46140C22001B041B0C5A43039468
:1022F0006B434443029568431B19150CEB189C4231
:1023000003D980246402A44660441C0C15041B04F9
:102310002D0C20185D19814277D373D00C1AA24A74
:102320007D1BAF42BF419446009B7F426344E01B4C
:102330001C00864200D1DBE00199FEF72FF94A46E6
:1023400042430B04290C070019438A4207D9891913
:10235000013F8E4203D88A4201D9871E8919881A03
:102360000199FEF71BF909044A46894629044D469E
:102370004243090C030029438A4207D98919013BCA
:102380008E4203D88A4201D9831E89193F04891AD3
:102390003A00039F1A43380013041B0C584381462C
:1023A0000298150C6F43434345434846000C84464E
:1023B000DB1963449F4203D9802040028446654470
:1023C00048461F0C00041B04000C7D191818A94274
:1023D00000D284E000D17FE001231A4357E6802336
:1023E0004A461B0313431B031B0BAA466F4A6FE6A7
:1023F000BA4200D935E74B46DC0758087B081C4336
:10240000FF0734E70024AF4289D247444745A4413F
:102410005B466442A4196418013BA6421ED2A04246
:102420006DD800D1B6E0241A9B4678E703005A46DF
:10243000283B9A400027914688E65846FEF72EFA38
:10244000203072E603005246283B9A409346002211
:10245000B4E65046FEF722FA20309AE6A642E2D1D0
:10246000B845DCD9341A9B4659E71F2B65DC504C24
:102470000099A4465C46614408008C4011008240EB
:10248000D940501E82410C4314435A46DA4013008F
:10249000620709D00F222240042A05D02200141D11
:1024A0009442894149425B181A0262D501220023F5
:1024B00000270DE68A4200D80AE7831E891907E73C
:1024C0000F231340042B00D1E6E5171D97429241DC
:1024D00053429B44FA08E0E5002800D1D7E5711883
:1024E000531EB14227D3A94215D358D01A0073E71F
:1024F000002B00DC04E6012300229B44CDE50223EF
:102500004744474589415B429C46494289190C1919
:10251000E344241A03E743465F0047459B41B8461E
:102520005B429E19023A8919A94200D054E74045FE
:1025300000D051E7ABE51A00F6E71F215F4649429C
:102540000C1BE740202B07D01A49009B8C466344A4
:1025500018005B4683401A43501E82413A430727C6
:102560000023174009D00F21002311401400042933
:1025700095D122005F075B021B0BD2081743002294
:10258000A6E5802359461B030B431B0317001B0BB7
:10259000064A9DE5BD42B2D89B460024BFE6804571
:1025A000B9D31A00C3E7C046FF030000FF070000CD
:1025B0001E0400003E040000F0B54F464646D646D5
:1025C0008446C0B58046194E18030F034D00000B1A
:1025D0005C0082463F0B6D0DC90F9146640DDB0F09
:1025E0000120B5420AD0B44203D0A54201D15745DB
:1025F0000CD01CBC90469946A246F0BD66463E43B0
:10260000F7D1AC42F5D154461443F2D10120C8456C
:10261000EFD1994207D0002DEBD163461F4338001C
:10262000471EB841E5E70020E3E7C046FF0700008A
:10263000F0B54F464646D6464D00C0B50E03C90F0D
:102640008A462C491F035C008046360B6D0D91466F
:102650003F0B640DDB0F8D421ED08C4216D0002D37
:102660001ED130438446002C01D13A4323D0624628
:10267000002A1AD09A4529D0514602200139084033
:1026800001381CBC90469946A246F0BD3900114362
:10269000E5D002204042F4E73043FAD1AC420FD0FB
:1026A000002C0FD13A43E7D00CE00122013B9343C9
:1026B00018000130E5E763460020002BE1D0DBE79E
:1026C0003A43E6D19A45D7D1A542D5DCA54205DBF0
:1026D000BE42D1D808D00020BE42D2D250460123FB
:1026E000013898430130CCE7C845C5D80020C8451B
:1026F000F4D3C6E7FF070000F0B54F464646D6467E
:102700004D00C0B50E03C90F8A462E491F035C0059
:102710008046360B6D0D91463F0B640DDB0F8D42ED
:1027200018D08C4211D0002D18D130438446002C93
:102730001ED13A431CD163460020002B30D05146B5
:1027400002200139084001382AE039001143EAD05B
:10275000022025E03043FBD1AC4226D0002C26D10C
:102760003A4324D15146022001390840013817E08C
:102770006246002A0FD09A45E1D1A54205DBBE4250
:10278000DDD819D00020BE420AD2504601230138BC
:102790009843013004E00122013B934318000130CB
:1027A0001CBC90469946A246F0BD3A43D0D19A450A
:1027B000C5D1A542C3DCE0E7C845C0D80020C84564
:1027C000E3D3EDE7FF070000F0B55746DE464E467F
:1027D0004546E0B5834606000F03480087B09246A1
:1027E0001D003F0B400DCC0F002800D16FE0DE4BE9
:1027F000984238D08023FF001B041F43730F3B43D4
:102800000193DA4B0027994600239B46F60081444A
:102810002B0369001B0B52469846490DED0F00290A
:1028200000D185E0D04B994200D173E04346DA00F5
:1028300080231B0413435246CC48520F8446134353
:10284000524600206144D200894421006940009131
:102850008C46012149448A460F2F00D990E0C44993
:10286000BF00CF59BF465B463B43019300D06AE1AE
:1028700002230827002681469B46C9E732005846B6
:10288000019B61460091022800D175E0032800D128
:10289000FEE1012800D02CE10023002700260025BE
:1028A0003F032A0D3F0BB34812053A4302401B0574
:1028B0001343009A5B00D1075B080B4330001900FB
:1028C00007B03CBC90469946A246AB46F0BD5B467D
:1028D0003B43019300D12FE1002F00D1A5E1380047
:1028E000FDF7DCFF03000B3B1C2B00DD96E11D22F6
:1028F000D31A5A460100DA405E4608398F40130069
:102900008E403B4301939C4B00271B1A99460023A2
:102910009B467DE7414653460B4393498C46E14431
:10292000002B00D01AE102220220174300228CE77C
:10293000134300D10DE14346002B00D181E1404615
:10294000FDF7ACFF02000B3A1C2A00DD72E101002A
:10295000434608398B4098461D239A1A5346D34064
:102960001A004346134352468A404946081A824990
:1029700089468144002068E77B4B002700268EE7CC
:10298000140C1204120C1100370C3604350C794368
:1029900028008C462E006043604483465643210045
:1029A000300C80465846794340440291844506D90C
:1029B0008846802149028C46E04441460291360413
:1029C000010C360C00048B4681191E0C1B041B0CD9
:1029D0000391190079438C46280075436544A84645
:1029E0005843050C45447743A94203D98021490245
:1029F0008C466744290C8C4639000004000C2D04D9
:102A00002D186144AB4405915946049101990F0476
:102A10003F0C080C390051434243904602008C465B
:102A2000090C8B4662437C4344445C44A04503D973
:102A30008021490288464244210C884661460904A7
:102A4000090C8C4639005943434370437E430F0CB5
:102A5000F6182404BE19644442448C46B34203D998
:102A600080235B0298464044029B61469846049B43
:102A7000370443449B46AB45AD416B420D04059979
:102A80002D0C8C467F196744FD18A8465D462D190C
:102A9000A542A44193466442A446C344DC448F4209
:102AA000BF4198459B4193459241A445A4415B4257
:102AB0007F421F43360C52426442BF192243BF1863
:102AC000624638184302D20D039913436A020A433F
:102AD000501E82416146ED0D2A434E023243D90118
:102AE00000D4B3E00126500832400243DE073243EF
:102AF0005B08224C5444002C62DD510709D00F20A2
:102B00001040042805D0101D9042924152429B185B
:102B10000200D90104D580241948E400034054443C
:102B20001848844200DD27E75E075B02D2081F0BCE
:102B3000630516435B0DB2E6002399460133042773
:102B400000269B4664E60323019781460C279B469B
:102B50005EE6012201201743002276E603230320CC
:102B60001F43434671E6C046FF07000001FCFFFF1C
:102B700060940110FFFF0F800DFCFFFFFF030000BA
:102B8000FFFFFFFEFE0700000023802700933F03A6
:102B90000026434B83E6019B3200A446584670E66C
:102BA000AC466EE6802701993F0339422DD03B4267
:102BB0002BD11F433F033F0B00951600384B6EE6A9
:102BC00001252D1B382D00DD66E61F2D40DC354824
:102BD0001C005044160082408440EE40501E82414A
:102BE00034431443EB40620709D00F222240042AE9
:102BF00005D02200141D9442804140421B181A0245
:102C00003ED501230027002649E68027019B3F038C
:102C10001F433F033F0B0094214B40E603005A46FD
:102C2000283B9A40002601926DE65846FDF736FE95
:102C3000203057E603005246283B9A4013000022FA
:102C400093E65046FDF72AFE20307BE6CA4650E761
:102C50001F201E004042041BE640202D03D0124CD2
:102C60005444A3401A43501E824132430726002792
:102C7000164009D00F200023104014000428B9D1B9
:102C800022005E075B021F0BD2081643002306E6F4
:102C900080273F031F433F033F0B1600004BFEE519
:102CA000FF0700001E0400003E040000F8B5574670
:102CB0004E464546DE460C000903E0B5490A460F7C
:102CC0005F0031431E03DB0F760A9B46530F3343ED
:102CD000C84E6500C000E40FD2006D0DA2468146CB
:102CE0007F0D9C469046B74200D1B9E05B46012675
:102CF00073409B46EE1BA34500D183E0002E63DDAD
:102D0000002F00D0B1E06346134300D123E1731ECE
:102D1000002B00D0BAE1861A6346B04280410125FB
:102D2000C91A4042091A0B0200D447E149024B0A72
:102D300098464346002B00D189E14046FDF7AEFDA1
:102D40000300083B1F2B00DD7CE120223000D21A5B
:102D50004146D040994002009E400A439D4200DD1A
:102D60006AE15D1B6B1C1F2B00DD94E1202110002C
:102D70003500C91A8E40DA408840DD40711E8E4110
:102D8000110007222843002506433240002A09D0BB
:102D90000F233340042B05D0331DB342B641764296
:102DA00089191E000B0200D43DE26A1C914B5505A7
:102DB0006D0D9A4200D119E18F4AF6080A40570773
:102DC00052023743120B9BE0002E00D0C5E06E1C70
:102DD0007605760D012E00DC48E16746861ACB1B8E
:102DE000B042BF417F42B8461F004346FF1A3B0036
:102DF000B8461B0200D55FE137439AD10022002478
:102E0000002579E0002E00DCFAE0002F00D18DE0F3
:102E1000784B9D4267D0802367461B041F43BC4606
:102E2000382E00DC52E1634613435A1E93411E18AC
:102E300086428041404209180B0200D4BEE06D4B2F
:102E400001359D4200D1D2E06B4A73080A4001214E
:102E50000E401E435108D30707221E43324095E718
:102E60001E00164300D045E740E7624B9D423AD032
:102E7000802367461B041F43BC46382E00DDEBE071
:102E80001F2E00DC3AE133006746203BDF403B0069
:102E9000202E05D04027BF1B6646BE4032439046D9
:102EA0004646721E96413343DAE0002B00D114E20D
:102EB0006346134300D168E180234E07C008C90868
:102EC0001B030643194208D06046C008184204D1CB
:102ED00063460100D2085E071643F3009946C90015
:102EE000720F444D11434B46DE08424B4F073743A8
:102EF000CA089D4200D16EE012036D05120B6D0DE4
:102F000000211203130B0A0D12051A433B4B2D052A
:102F100013402B435B00E4075B0823433800190090
:102F20003CBC90469946A246AB46F8BD6346134367
:102F300011D0731E002B00D007E186188642804115
:102F400061444042091801250B0237D502257BE771
:102F50003E00614691463500C5E75C46002D00D035
:102F6000E1E00B000343F3D0731C00D1ACE1214B33
:102F70009F4200D13AE1F343382B00DD6FE11F2B74
:102F800000DD8CE120250E00ED1AAE40B0460600B3
:102F9000AA46DE40454635432E005546D940A84056
:102FA0006346451EA8415B1A9C463043161AB2423E
:102FB000924163465242991A3D00B4E607223240DC
:102FC000002A00D0E4E60B4BF6084F073743CA0847
:102FD0009D4200D090E73B00134300D1A6E180233F
:102FE0001B031A431203120B024D89E7150000223E
:102FF000002785E7FF070000FFFF7FFFFFFF0F802F
:10300000002E00D0C7E06B1C5E05760D012E00DCA3
:10301000F0E0C84DAB4200D1B9E085180A00854206
:1030200089416244494251180722CE076D082E4358
:10303000490832401D00A9E6BF49ED1A1140072298
:103040003240A3E6320028388240002686E630006F
:10305000FDF724FC203073E6634613435A1E934168
:10306000C61AB04280414042091A5CE60E0067462B
:1030700006431743002D5ED1002E00D0F3E0002F51
:1030800000D11EE15C46614691462CE7A94FBE4245
:103090007BD01E00F1E610001F3DE840202B03D03E
:1030A0004021CB1A9A401643731E9E4107220643C5
:1030B00032400021002583E7161A6346B242804160
:1030C000591A40420B1A98465C4632E61F2E00DD24
:1030D000ABE02027BB1B9A4663465746BB40994648
:1030E00013004F46F3401F433B005746BA40571E5C
:1030F000BA4113436246F240891898E62027BB1B69
:103100009A4663465746BB40994613004F46F340E4
:103110001F433B005746BA40571EBA41134362460D
:10312000F240891A9CE7834B9F425FD080252D0493
:103130007342294320E7002E0CD1002F00D1D0E0AC
:103140005C46614691467B4DCDE67A4FBE421CD02F
:103150001E0065E6002F18D0C0084E0706438020E9
:10316000C9080003014208D06346DC08044204D1C8
:103170002100DA46D2085E071643F300994601247F
:103180005346C900720F11431C406A4DABE61D0047
:1031900000220027B4E6002D59D10B00034300D1D3
:1031A000D6E6731C00D1B2E0624B9F421ED0F343BF
:1031B000382B6FDC1F2B00DD97E020250E00ED1A69
:1031C000AE40B0460600AA46DE40454635432E00D6
:1031D0005546A840D940451EA8418C440643B61820
:1031E00096429241514261443D0025E63D006146D0
:1031F000914678E60B000343002D00D055E6002BE6
:10320000F5D06346134300D16DE6861886428041AF
:1032100061444042091800220B0200D4D0E6464B1C
:1032200001351940B2E5B1465DE633006746203B03
:10323000DF403B00202E05D04027BF1B6646BE4026
:10324000324390464646721E96413343EFE5394B72
:103250009F42CBD080252D0473422943A8E7084321
:10326000411E8841A2E6002F00D13CE66346861A43
:10327000CF1AB0429B415B42FB1A98461B024ED5C7
:10328000161A6346B2429241591A5242891A5C4652
:1032900000227BE501430E00711E8E419FE71D0059
:1032A0000E00203DEE40B046202B04D04025EB1A06
:1032B00099400843814648464346411E8841184389
:1032C00074E60022002417E6161A6346B2429241C1
:1032D000591A5242891A3D0025E561469146154D1D
:1032E00001E680220024120379E61D000E00203D35
:1032F000EE40B046202B04D04025EB1A99400843FD
:1033000081464E464346711E8E411E4367E786182E
:1033100096429B4161445B42C9183D008CE547469B
:103320003743CED007224146324049E600273A00D3
:10333000E6E5C046FF070000FFFF7FFF70B50C4EBB
:103340000D031C0349005B002D0B490D240B5B0D85
:10335000B14208D0064900208B4203D1144320001B
:10336000441EA04170BD05430120002DFAD1F1E7B4
:10337000FF07000030B5144D0A034B00120B5B0D24
:10338000C90F0024AB4211DD104CA34210DC802495
:10339000640322430E4CE41A1F2C0CDD0D48C31AA3
:1033A000DA4013005C42002900D11C00200030BD2F
:1033B000094BCC18FAE7094DE040AC4663449A400B
:1033C00013000343EEE7C046FE0300001D040000A7
:1033D0003304000013040000FFFFFF7FEDFBFFFF3D
:1033E00070B500282DD0C317C5185D40C40F280044
:1033F000FDF754FA154B1B1A5B055B0D0A2815DD0A
:103400000B38854000222D032D0B002110002D03C9
:103410000A0D2D0B12052A430D4D1B052A4013439F
:103420005B00E4075B082343190070BD020029001C
:10343000153291400A000B21081AC5402D032D0BAF
:10344000E3E70024002300250022DEE71E0400003D
:10345000FFFF0F8010B5041E25D0FDF71FFA144B97
:103460001B1A5B055B0D0A2812DD0B388440002215
:103470002403240B0021100024030A0D240B120541
:1034800022430C4C1B05224013435B00590810BD1E
:1034900002002100153291400A000B21081AC44095
:1034A0002403240BE6E7002300240022E2E7C046C1
:1034B0001E040000FFFF0F804100090E4B1C70B579
:1034C000DBB24602750AC40F012B14DDE0239B001A
:1034D0006D07360BCB1800210A0D280012051C4D74
:1034E00032435B052A405B0813435B00E4075B083B
:1034F0002343190070BD002914D1002D1ED02800CF
:10350000FDF7CCF90A281CDC0B232A001B1ADA4031
:10351000030015339D400F4B12031B1A5B05160B5E
:103520005B0DD8E7002D06D0320B802636036D07E1
:103530001643094BCFE7084B0026CCE700230026B3
:10354000C9E703002A000B3B9A400025E3E7C04689
:10355000FFFF0F8089030000FF070000F0B54C005B
:10356000640D0B03621C5B0A460F5205C90F1E4314
:10357000C500520D012A29DD374BE718FE2F1CDC50
:10358000002F3BDD8001431E98410722F3006D0FA1
:1035900003432B431A40002A04D00F221A40042A66
:1035A00000D004338022D2041A4024D00137FAB26A
:1035B000FF2F02D09B01580A01E0FF2200204002A9
:1035C000D205400AC90710430843F0BD3543002C1B
:1035D00004D1002D0AD100220020F0E7002DECD00C
:1035E0008020C0033043FF22E9E7002400235B0270
:1035F000580AE2B2E3E7DB083C00F8E73B00173388
:10360000F3DB80231B0433431E26F61B1F2E14DD21
:1036100002225242D71B1A00FA401700202E04D073
:103620000E4A94466444A3401D432B005D1EAB41EB
:1036300007223B431A400027ADE7094A2800A21899
:10364000954093406C1EA541F04007222B43034355
:103650001A4000279FE7C04680FCFFFFA2FCFFFF47
:1036600082FCFFFF10B5002903D1FDF717F92030C8
:1036700002E0081CFDF712F910BDC046F0B54E4639
:103680005746DE464546E0B50F00002183B00600F0
:103690008946002F06DA3900002746428F41012172
:1036A00049428946002B07DA4946C943100089463A
:1036B0001900002342428B4134003D009246984657
:1036C000BB4269D866D041465046FFF7CBFF8346E0
:1036D00039003000FFF7C6FF5B461B1A9C46203BB3
:1036E0009B4600D575E05146584681400B00514637
:1036F000604681400A00BB4261D85ED034003D0084
:103700005946A41A9D41002900DA7AE000210020E0
:1037100001260090019159468E400196614601268E
:103720008E4061460096002950D0D90756085F08A0
:103730000E4363460EE0AF4201D1A6420CD8A41B53
:10374000BD41012124196D410022013B64185541FE
:10375000002B06D0AF42EED9013B24196D41002B5E
:10376000F8D1009801995B4600196941002B3DDBB7
:103770002E00DE4063462C00DC405B46002B4BDB1A
:1037800034005D46AC4023006446A6403200801AF7
:10379000994103E0B24296D9002000214B46002B0C
:1037A00004D003000C0000215842A14103B03CBCEE
:1037B00090469946A246AB46F0BDB1429ED9002143
:1037C00000200090019161460029AED10098019936
:1037D000E4E72023624651469B1AD94040460091B7
:1037E00061468840030000990B4380E7624620232E
:1037F0009B1A2A009A40260013006246D6401E43B8
:10380000B8E7614620260127761A00200021F740FC
:1038100000900191019781E76746202362463500B9
:10382000BC409B1ADD4023002B43ADE7024670B538
:103830000A4392072AD11E4DEE0104C808C9541B41
:103840009443344017D0D0B2D9B2401A2106014374
:1038500010D190B299B2401A210401430AD110024A
:103860001902000A090A401A2102014302D1100E6E
:10387000190E401A70BD9A42DFD010BA19BA8842A8
:1038800001D9012070BD0020C04370BD02780B78C3
:1038900001300131002A09D09A4207D102780B7811
:1038A00001300131002A01D09A42EFD0D01A70BD08
:0438B0000101010110
:0238B40070475B
:1038B800F7B55F4C5F49200000F02EFF802164259A
:1038C800C905200002F0E0F80121200001F032F8DB
:1038D80003220121200001F033F80121200001F02A
:1038E80024F80221200001F025F8032202212000FB
:1038F80001F026F80221200001F017F80023012228
:1039080050210095200000F0D5FF0023012251210D
:103918000095200000F0CEFF0023022250210095E0
:10392800200000F0C7FF002302225121009520004B
:1039380000F0C0FF404B01221B882B219BB2009551
:10394800200000F0B7FF3D4B01221B882D219BB2C0
:103958000095200000F0AEFF394B02221B882B2176
:103968009BB20095200000F0A5FF364B02221B8871
:103978002D219BB20095200000F09CFF032201211D
:10398800200001F0B1FA304E0322306002212000FD
:1039980001F0AAFA2D4B2E4A186031681160196897
:1039A8002C4A116031682C4A022611601A682B4B88
:1039B8001A6001222A4B1A702A4F3B78002B25D017
:1039C8001D4B01221B882B219BB20095200000F083
:1039D80071FF1A4B01221B882D219BB200952000F4
:1039E80000F068FF164B32001B882B219BB2009514
:1039F800200000F05FFF134B32001B882D219BB283
:103A08000095200000F056FF00233B70104B012169
:103A18001A682000032301F0FBFA0E4B31001A68E4
:103A28002000032301F0F4FA30000CF059FBC3E73F
:103A3800982A002040420F0056020020520200201F
:103A48005402002050020020502F00204C2F00204C
:103A5800782F0020742F0020202C00201C2C002000
:083A68000C300020103000209A
:0A3A700010B50C2210F0AEFA10BDE4
:063A7A000023C360704749
:043A80000C3070474F
:0C3A840010B5FFF7FBFF0023036010BD2E
:0E3A9000C36810B5002B01D09B68984710BD8D
:0E3A9E0010B504000021FFF7E9FF200010BD65
:0C3AAC0010B50400FFF7EEFF200010BD75
:103AB80010B5044B0822C3600B68002108C010F041
:083AC80017FB10BDA0940110D2
:103AD00013B504000191002903D1FFF7D3FF2000A3
:0A3AE00016BD01A9FFF7E8FFF9E7A2
:083AEA0010B50368984710BDF8
:083AF20010B5FFF7F9FF10BD4C
:103AFC00802313B502221549DB00154800F0E8FDC0
:103B0C00144C154B15482360FFF7C3FF00211448D4
:103B1C000CF09EFA13480CF037FA00238022009325
:103B2C002000520118210CF015FB0F4A0F49200000
:103B3C000BF010FE0123A8220093C02131330C4856
:103B4C0005F07EFC0B4802F0DBFF13BDD01B002000
:103B5C00982A0020E42C002018C80110E82C002022
:103B6C00242D0020382D002048020020DD010110FA
:083B7C00342F00204416002044
:103B8400E121F0B52B4C85B04902200004F0F0F897
:103B9400FA20C00005F068FF274802F0D6FA002892
:103BA40004D12649200005F0EFFCFEE7244920005B
:103BB40005F0D9FC234E20003100FA2705F0E4FC7F
:103BC400FF00214D2B68032B0DD031001F4A2048E4
:103BD40002F048FE2860380005F046FF1D49200029
:103BE40005F0C1FCEDE71C49200005F0CDFC1B4BA2
:103BF4001B48196889B202F07DFE1A496846FFF72E
:103C040065FF694618480CF013FB6846FFF74CFF44
:103C1400164B1B78002B03D10A2005F025FFF7E78C
:103C24001349200005F0B0FC1249200005F0ACFC5B
:103C340005B0F0BD781F0020EC1500200D95011093
:103C44002E9501106C0200205C2F00205C020020E5
:103C54005C1600204C9501104E950110580200206E
:103C640044160020B9380010E42C00200C30002049
:083C740064950110BF950110D9
:103C7C00F0B5EB4C95B0200003F086FF00282CDD4E
:103C8C000A2221000EA805F0BDFD0EA805F07DFE50
:103C9C000EA805F06DFEE3490EA805F055FEE24AAC
:103CAC00051E00D025E2E1490EA805F04DFEDE4AC6
:103CBC00002800D027E2DE490EA805F045FE051EBF
:103CCC0000D102E2DB4A13880A339BB21380012233
:103CDC00D94B1A700EA805F0ADFD05F0B1FED74D0D
:103CEC002B68C01AD64B984247D905F0A9FED54986
:103CFC002860200005F033FCCB4B0A2219882000E9
:103D0C0089B205F08AFCD04E2000310005F027FC6A
:103D1C00C84B0A221988200089B205F07EFCCB4DD5
:103D2C002000290005F01BFCC949200005F017FCF8
:103D3C00C84B0A221988200089B205F06EFC3100AC
:103D4C00200005F00CFCC44B0A221988200089B213
:103D5C0005F063FC2900200005F001FCBF492000A0
:103D6C0005F0FDFBBE4B1868FFF7A0FB0B00022112
:103D7C0002000091200005F023FDBA4C200002F057
:103D8C007BF9002800D19BE10DAB0CAA0BA92000FC
:103D9C0002F01AF980230C990B9A1B06081CD418F4
:103DAC00FDF770FA0D9D061C291C281CFDF76AFAFC
:103DBC00011C301CFCF7F4FE0EF04AFB011C201C0D
:103DCC000EF042FB0D99041C0C980EF03DFBFFF716
:103DDC006DFB0022A44BFEF7F1FCA44BA44AFEF7AA
:103DEC00E3F8FFF7B5FBA34A0490201C1668FFF715
:103DFC005DFB00229C4BFEF7E1FC9C4B9C4AFEF7C2
:103E0C00D3F8FFF7A5FBFFF751FB9B4A944C1268C4
:103E1C00256805922268029003910692974A301CFD
:103E2C0012680792FFF742FB002206000F0002986F
:103E3C000399934BFEF7C2FC02000B0030003900D3
:103E4C00FEF72EFFFFF784FB291CFDF71BFAFFF78B
:103E5C002DFB089009910698FFF728FB02000B0038
:103E6C0000208849FEF71CFF060007980F00FFF79B
:103E7C001DFB02000B0030003900FEF79FFC020016
:103E8C000B0008980999FDF773FDFFF761FB802380
:103E9C007A4A1B0610607C4A2568246812680692D0
:103EAC00049AD018FFF702FB0022784BFEF786FC31
:103EBC00060005980F00FFF7F9FA02000B0030001E
:103ECC003900FDF755FDFFF743FB291CFDF7DAF927
:103EDC00FFF7ECFA0600201C0F00FFF7E7FA0200D0
:103EEC000B0000206749FEF7DBFE040006980D006E
:103EFC00FFF7DCFA02000B0020002900FEF75EFC45
:103F0C0002000B0030003900FDF732FDFFF720FBFB
:103F1C005D4B1860574B1F681868FFF7C7FA0022F3
:103F2C005B4BFEF7BDFEFFF713FB534B051C1E68E6
:103F3C001868FFF7BBFA574B0022FEF7B1FEFFF7EC
:103F4C0007FB4E4B041C1968281CFCF78DFC002841
:103F5C0011D1381CFFF7AAFA4D4B0022FDF708FDD2
:103F6C00FFF7F6FA454B051C1968FCF769FC0028AD
:103F7C0001D1424B1D68484B201C1D60424D2968E5
:103F8C00FCF772FC00280FD1301CFFF78FFA0022CF
:103F9C00424BFDF7EDFCFFF7DBFA2968041CFCF73C
:103FAC004FFC002800D12C683D4B1C6005F048FDEF
:103FBC003C4C2368C01A092800D881E005F040FD6C
:103FCC00394B206039480E93021D0FAB70CA70C379
:103FDC00032512680EA91A60037D354C0B75354B01
:103FEC0020001A6892B202F0F1FC3349200005F06F
:103FFC00B6FA029A039B0095200005F0DBFB2F49D3
:10400C00200005F0ACFA0498FFF750FA0095020076
:10401C000B00200005F0CEFB200002F0EFFC4FE07F
:10402C00781F0020AC94011056020020B0940110AF
:10403C00B494011052020020103000209C2C00205F
:10404C00E7030000D2940110E5940110EC940110E8
:10405C00F39401105402002050020020FE94011031
:10406C004C020020EC15002000806640FB2109402A
:10407C00182D4454502F00204C2F0020202C0020B1
:10408C0000000C400000F03F1C2C00200000F83F0A
:10409C0000405A4000E07040782F002000804640DD
:1040AC00742F0020642C002018B40110342F002031
:1040BC004416002068020020079501100B95011092
:1040CC000A2005F0CDFC15B0F0BD3A490EA805F05C
:1040DC003BFC002806D0384A1388092B19D91388C1
:1040EC000A3BF2E535490EA805F02EFC051E03D05F
:1040FC00334A13883233E8E532490EA805F024FC24
:10410C00002808D02E4A1388312B02D91388323B51
:10411C00DBE51580DBE52C490EA805F015FC2B4AD8
:10412C00002800D0CFE52A490EA805F00DFC002888
:10413C0005D0264A1388092BD1D80023C6E525497A
:10414C000EA805F001FC002815D0234DFE2628688A
:10415C00FFF7ACF9214A224BFDF70AFCFFF7F8F9FF
:10416C00B60528602868311CFCF77EFB002800D1BE
:10417C00B0E52E60AEE51B490EA805F0E5FB002866
:10418C0000D1A7E5144D2868FFF790F9134A144B9A
:10419C00FEF786FDFFF7DCF928602868FFF786F943
:1041AC00114A124BFCF712FB002800D192E5104B80
:1041BC002B608FE5B894011052020020BC940110C2
:1041CC0054020020C0940110C4940110500200202D
:1041DC00C8940110CC9401104C0200209A99999922
:1041EC009999A93FCF9401107B14AE47E17A843F93
:0441FC000AD7233C7F
:1042000070B50C0016000021102205000FF074FF9D
:10421000FF232B709123DB009C4200D19DE000D94D
:10422000C1E09C4B9C4200D96FE0013B9C4200D313
:10423000EAE1712C0ED040D81C2C0BD00DD80C2CE0
:1042400008D003D80A2C05D0280070BD122C01D04C
:10425000182CF9D10023904A0AE01E2C00D17CE0F2
:1042600000D2C5E1402CF5D08C4B8B4A6B2CEBD1A6
:104270000020010151180C78B44200D0DDE14A78E9
:104280002A704A686A608A68AA608A786A70CA680E
:10429000EA60002BD8D000210A019A1810788642D3
:1042A00000D0D0E153782B7053686B609368AB609B
:1042B00093786B70D368EB60C6E73823FF339C427A
:1042C00000D19BE10DD80B3B9C42C3D003D8743C7A
:1042D000012CBFD9B8E79B235B009C42B4D1704B43
:1042E00087E14223FF339C4200D189E101D8013BA1
:1042F000F3E7AF235B009C4200D17CE1B421694B22
:10430000694A49008C42B3D09EE78723DB009C4278
:1043100023D025D8654B9C420CD00DD8644B9C42D1
:1043200000D291E7634B9C4200D86DE109339C4277
:1043300000D089E7604B11E0604B9C4204D005D867
:104340000A3B9C4200D07FE75D4B07E05D4B9C42FF
:1043500003D05D4B9C4200D076E75C4B5C4A87E71C
:104360005C4B9C420ED85C4B9C4209D25B4B9C42FE
:10437000F3D000D268E75A4BE418012C00D963E768
:10438000584BEBE7584B9C42FAD003D80A3B9C426F
:10439000F6D059E7554B9C4203D0554B9C4200D078
:1043A00052E7544BDAE7544B9C4200D13FE15FD8CF
:1043B000A023DB009C4227D028D8504B9C4218D029
:1043C0000ED84F4B9C42DBD001D84E4BDFE74E4B13
:1043D0009C4203D00A339C4200D035E74B4BBDE7EB
:1043E0004B4B9C4200D10DE105D84A4B9C4200D07A
:1043F0002AE7494BB2E79B23DB009C4200D101E155
:10440000464B9C4200D01FE7454BA7E7454B9C42DB
:1044100000D107E115D8444B9C4200D1DDE005D81E
:104420000A3B9C4200D00FE7404B08E0404B9C42C7
:1044300000D1DBE03F4B9C4200D005E73E4B3F4ABA
:1044400016E7FA231B019C4200D1EDE005D83C4B56
:104450009C4200D0F8E63B4BF1E73B4B9C4200D13D
:10446000E2E03A4B9C4200D0EEE60023384AFFE6F9
:10447000384B9C42E2D000D991E0374B9C4200D1AE
:10448000D8E079D8354B9C4200D1D0E06AD8344B83
:10449000E8E7C046E90300001C9F01101C960110CC
:1044A0004C9701102C9601106C9F0110060400001F
:1044B000F2030000F3030000DC9B01101A0400006B
:1044C000EC9A0110240400002E0400007C970110D7
:1044D000BC9F011057040000560400004204000075
:1044E000B4FBFFFFFCA201106A040000740400008A
:1044F0007E0400003C9B0110BE0F0000BA040000C7
:104500009C04000092040000A60400008C9B011093
:10451000CE040000C40400009C9A0110F6040000C0
:104520002C9C01103E080000DA0700005CA001107E
:10453000E407000034080000CCA001104CA30110D7
:1045400048080000ACA10110AA0F0000B40F000041
:10455000EC9C011019A900002C100000D20F0000E3
:10456000C80F00003B4B9C4203D03B4B9C4200D009
:104570006AE60023394A7BE682235B019C4259D0DC
:1045800006D8374B9C4200D05EE60023354A6FE6E2
:10459000354B9C42F9D035490023354AB2E6C82351
:1045A0001B029C4235D00CD8324B9C423AD003D8E7
:1045B00031490023314AA5E6314B9C4226D0314B8C
:1045C00046E7314B9C4227D009D8304B9C4200D162
:1045D0002AE72F4B9C4200D036E62E4B2FE72E4B7E
:1045E0009C421CD02D4B9C4200D02DE62C4B26E744
:1045F00000232C4A3CE600232B4A39E62B4BADE640
:104600002B4BABE62B4BA9E62B4BA7E600232B4A03
:104610002EE600232A4A2BE600232A4A28E6002316
:10462000294A25E6294B0AE70023294A20E60023E8
:10463000284A1DE60023284A1AE60130C0B2FF2CA2
:1046400000D016E625E60131C9B2FF2800D023E6E6
:10465000FAE5C0461810000022100000CC9D0110A1
:1046600036100000AC9E01104A10000018A900008E
:104670001C98011011B4000010B400008C980110B7
:1046800010B5000011B5000008D2000001C80000FC
:1046900001D200001CA2011008D3000009D30000C1
:1046A0008CA201106C9F01105C960110AC96011059
:1046B000FC9601104C9A01100CA00110FC980110FE
:1046C000AC9701106C990110DC9901103CA101100C
:0C46D0007C9C01105C9D01103C9E0110C0
:1046DC00F8B50E0080211700C9051A00040001F07E
:1046EC00EAF9A52300225B00E25418200BF054FADF
:1046FC0005003A00310001F005FC2900A5642000FA
:10470C0001F0F4F92000FE22FF214C300FF0EEFCFA
:04471C002000F8BDC4
:1047200070B504000D0001F0F0F9A064002804D178
:104730004021200001F041FA70BD036829009B6907
:044740009847F9E7B6
:1047440010B50123162486B06C445B4223801533D4
:104754000293123B01930094002201F0C9FA2088CD
:0447640006B010BDCE
:10476800F0B51E00002389B005000F0005920693DE
:1047780001F0C7F9041EA86406D12800402101F001
:1047880018FA200009B0F0BD0599380000F050FC77
:10479800030CDBB20790002B11D00E9907AA1288E0
:1047A80002910421019106A99BB2009128003100D1
:1047B80001F09CFA069B012803D15BB20693069888
:0A47C800E0E70228FBD11BB2F8E77E
:1047D200F0B587B005000F0003921E0001F094F9B6
:1047E200041EA86406D12800402101F0E5F920004A
:1047F20007B0F0BD0399380000F01DFC030C0590D2
:104802000020DBB28342F3D00D9905AA128828005A
:0E4812000191009331000CAB01F0AEFAE8E723
:10482000A52330B55B00C35CC2184C3212788A42B3
:1048300009D00022074C5500655BD3B28D4204D1EC
:10484000A52252008354180030BD0132552AF2D1FE
:08485000FF23F8E77CA301102F
:1048580070B504000D00FD290FD81100FFF7DCFF2B
:104868000300FF3B5A1E934165194C352870DBB293
:104878004221FF2802D0180070BD0421200001F059
:0648880098F90023F7E798
:1048900010B5FF2904D1FB3901F08FF9054807E075
:1048A00040184C300378542BF8D8034A5B00985AD0
:0C48B00010BDC046FFFF00007CA30110FB
:1048BC00F0B50E0085B01100039304001500FFF74E
:1048CC00E1FF134B0700984210D129002000FFF79D
:1048DC0033FF290002002000FFF7B8FF002811D099
:1048EC0029002000FFF7CEFFB8420BD00A9B010035
:1048FC000193039B3200009320002B00FFF763FF12
:10490C0005B0F0BD2000422101F051F90020F7E77D
:04491C00FFFF000099
:1049200007B51300642200920A002221FFF7C6FF98
:024930000EBDBA
:0A49320010B50122FFF7F3FF10BDDE
:0A493C0010B50022FFF7EEFF10BDDA
:1049480073B505000E001400FFF79EFF9123DB00EE
:10495800984200D1AFE000D9CFE0954B984200D9FA
:104968007AE0013B984200D389E071280ED037D80D
:104978001C280BD01CD80C2808D003D80A2805D02E
:104988000020BCE1122801D01828F9D1032C00D04E
:104998009AE161340094002332000A212800FFF7CD
:1049A80089FF0028ECD0834B009432000B21A3E14F
:1049B8001E2800D17FE044D34028E7D06B28DFD100
:1049C800032C00D080E100236134009432000A21D6
:1049D8002800FFF76FFF0028D2D00094764BE4E759
:1049E8003823FF3398424AD01CD80B3B9842CDD08D
:1049F80003D874380128C9D9C2E79B235B009842C1
:104A0800BED1032C00D08CE1613400230094320025
:104A18004E212800FFF74EFF031E00D177E16423E3
:104A28000093DBE74223FF33984228D001D8013BAB
:104A3800E5E7AF235B00984200D156E10A3398427C
:104A48009ED1032CBFD0012C00D140E1042C97D17A
:104A580060340094584BB9E78723DB0098422AD08A
:104A680032D8564B98420AD018D8554B984287D31B
:104A7800544B984203D90933984200D080E7032C5D
:104A88001CD0012C00D17FE1042C00D183E1002C43
:104A980000D084E164230093002312E04A4B98423B
:104AA800EDD001D80A3BE7E7484B984203D0484B82
:104AB800984200D064E7032C00D063E1642300939C
:104AC800613B3200092117E1424B98420CD8424B16
:104AD8009842D4D2414B9842EDD000D250E7404B97
:104AE800C0180128CBD94BE73E4B9842C7D0D9D93B
:104AF8003D4B9842C3D03D4BBEE73D4B984251D009
:104B080000D993E0A023DB009842B8D01AD8394BDB
:104B18009842B4D00AD8384B9842B0D001D8374B15
:104B2800AAE7374B9842AAD00A33A5E7354B9842F3
:104B3800A5D001D8344B9FE79B23DB0098429ED039
:104B4800324B99E7324B984208D01DD8314B9842E6
:104B580004D014D80A3B984200D011E7032CADD0FA
:104B6800012C00D110E1042C00D114E1002C91D0CB
:104B7800102C00D004E764230093543BA1E7264B94
:104B88009842EBD0254BE6E7FA231B01984209D05F
:104B980001D8234BDFE7234B984203D0224B98429E
:104BA80000D0EDE6032C00D188E7012C68D1EBE0BA
:104BB800E9030000FF030000FF0F000006040000E7
:104BC800F2030000F30300001A04000024040000AC
:104BD8002E040000570400005604000042040000A0
:104BE800B4FBFFFF6A040000740400007E040000A8
:104BF800BE0F0000BA0400009C04000092040000EC
:104C0800A6040000CE040000C4040000F60400005E
:104C18003E080000DA070000E4070000340800003E
:104C280048080000AA0F0000B40F0000614B98422A
:104C380094D029D8604B9842B4D00AD85F4B984298
:104C4800B0D001D85E4BAAE75E4B9842AAD05E4B23
:104C5800A5E782235B019842A4D001D85B4B9EE76D
:104C68005B4B98429ED05B4B984200D088E6032C61
:104C780000D123E7012C00D186E0042C00D18AE082
:104C8800002C00D106E77BE6C8231B029842EED031
:104C98000BD8514B984200D160E701D84F4BE3E75E
:104CA8004F4B9842E3D04F4B55E74F4B9842DED0DD
:104CB80005D84E4B984200D150E74D4B4BE74D4B32
:104CC8009842D4D04C4B46E7012C00D058E66334C8
:104CD8000094002332000A212800FFF7EBFD00288A
:104CE80000D14DE6009400235FE6032C08D164232D
:104CF8000093623B320008212800FFF7DBFD76BDF8
:104D0800012C00D03CE6642300932300F2E70094D2
:104D180032000A212800FFF7CDFD002800D07EE6EA
:104D28002EE6012C15D163340023009432004E2165
:104D38002800FFF7BFFD031E02D064230093D2E7CB
:104D4800009432000A212800FFF7B4FD0028F4D1AE
:104D580016E6042C0DD160340094002332004E2155
:104D68002800FFF7A7FD002800D058E60094234B41
:104D7800CEE7002C00D003E66423320000934E21D6
:104D8800633BB9E7012C03D164230093633B98E6A6
:104D9800042C00D0ECE664230093603B91E6102CD1
:104DA80000D1E8E6052C00D0EAE56423009323004F
:104DB80087E6C04619A900002C100000D20F000099
:104DC800C80F000018100000221000003610000064
:104DD8004A10000018A9000011B4000010B4000027
:104DE80010B5000011B5000008D2000001C800008D
:104DF80001D2000008D3000009D30000FF0F000013
:104E0800F0B589B003911100029304001700FFF771
:104E18003BFD324B06000500984211D139002000B5
:104E2800FFF78CFC390002002000FFF711FD002875
:104E380052D039002000FFF727FD0600A8424BD0CA
:104E480004AD039A31002800FFF7D6F92A78FF2A23
:104E58003CD064232000009331003B00FFF780FC26
:104E6800029B0400042B35D81800FBF7F9FA030855
:104E7800242424002000FCF733FD09B0F0BD686845
:104E8800FCF72EFD061C2000FCF72AFD311CFCF760
:104E98002DFB1349FCF7F8F9041CA868FCF720FD62
:104EA800311CFCF723FB011C201CFCF715F80D49ED
:104EB800FCF71CFBE1E76B78029A93420AD12000C9
:104EC800FCF70EFDE968FCF7DFF9D6E74121200081
:104ED80000F06FFE0020D0E74221F8E7FFFF000056
:084EE800000048430000C8422D
:104EF00010B5131E01D0032A04D10A000421FFF7C4
:084F000083FF10BD0020FCE757
:104F0800F0B58DB0059312AB1B780E001100069317
:104F180004000292FFF7B8FC3A4B050007009842DC
:104F280011D102992000FFF709FC02990200200024
:104F3800FFF78EFC00285FD002992000FFF7A4FC41
:104F48000500B84258D008AF320029003800FFF7F2
:104F580053F93B7800260793FF2B16D0099B04933F
:104F68000A9B0393069B042B0FD81800FBF778FACB
:104F78000310363636000598FCF792FC0026049B91
:104F8800984202DB039B98421DDD30000DB0F0BD56
:104F98000498FCF7A5FC061C0398FCF7A1FC311C3F
:104FA800FCF7A4FA1849071C0598FBF7FBFD011C40
:104FB800381CFCF769F91549FBF78EFF311CFBF724
:104FC800F1FDFCF76DFC642300900193079A029BA6
:104FD80029002000FFF7F9FB0600D6E77B78069A40
:104FE80000269342D1D1F9680598FBF775FF0DF0BB
:104FF8000BFAFCF755FCC2E74221200000F0D9FD6E
:105008000026C2E7FFFF00000000C8420000484336
:1050180013B50400002B02D00020032B06D1009307
:0E5028002000131C0A000321FFF76AFF16BDCB
:10503800002373B500939123DB00984200D18FE0E1
:1050480000D9AEE0904B984200D966E0013B984207
:1050580000D376E0712814D035D81C2811D013D885
:105068000C280ED009D80A280BD00023019301AAD6
:10507800538810881B04184376BD122801D01828BD
:10508800F3D10023814A09E01E2800D182E141D3EF
:105098004028F6D07E4B7D4A6B28E6D100200626B4
:1050A80034004443141925788D4200D07AE16846CB
:1050B800628802802279827000220625934200D0FD
:1050C8007BE1009BD2E73823FF33984200D164E1AB
:1050D8000ED80B3B9842D4D003D874380128D0D9C5
:1050E800C3E79B246B4B64006B4AA042D6D0BCE755
:1050F8004223FF33984200D14FE103D8A024674BE5
:105108006400F1E7AF235B00984200D147E10A331E
:105118009842AAD10023604AC0E78723DB0098425F
:105128001ED01FD85E4B98420BD00CD85D4B9842CE
:1051380000D29AE75C4B984203D90933984200D0D1
:1051480093E75A4B27E15A4B9842FAD001D80A3BC9
:10515800F4E7584B984203D0574B984200D084E765
:10516800564B18E1564B98420ED8564B984209D2E6
:10517800554B9842F4D000D277E7544BC018012819
:1051880000D972E7524B06E1524B9842FAD003D845
:105198000A3B9842F6D068E74F4B9842F2D04F4B03
:1051A800F7E74F4B984246D048D8A023DB009842F7
:1051B8000CD01ED84B4B9842C3D00ED84A4B9842BD
:1051C80004D005D8494B984200D04EE7484BE2E05E
:1051D800484B9842B5D00A33B0E7474B9842B0D015
:1051E80001D8464BAAE79B23DB009842A9D0444B41
:1051F800E9E7444B984208D00FD8434B984204D073
:1052080006D80A3B984200D02FE700233F4A45E7DB
:105218003F4B9842F9D03F4BF4E7FA231B019842E1
:1052280009D001D83C4BEDE73C4B984203D03C4BAE
:10523800984200D019E700233A4A2FE73A4B9842A0
:10524800E3D000D984E0394B9842F4D00AD8384BDF
:105258009842F0D001D8374BEAE7374B9842EAD06A
:10526800364BE5E782235B019842E4D001D8344B02
:10527800DEE7344B9842DED0334B984200D0F4E658
:105288000023324A0AE7C046E9030000F4A50110EA
:10529800EEA50110B8A80110BAA60110D0A80110F7
:1052A80006040000F2030000F303000058AB0110ED
:1052B8001A040000240400002E0400004CAB011066
:1052C800570400005604000042040000B4FBFFFF2E
:1052D800DAAA01106A040000740400007E040000C9
:1052E800BE0F0000BA0400009C04000092040000F5
:1052F80016AB0110A6040000CE040000C404000090
:10530800F60400003E080000DA07000070AB011048
:10531800E40700003408000048080000AA0F000055
:10532800B40F000026A4011019A900002C100000D9
:10533800D20F0000C80F0000181000002210000053
:10534800361000004A10000018A90000EEA801104D
:10535800C8231B02984293D00BD81E4B984200D109
:1053680053E701D81C4B88E71C4B984288D01C4B4C
:1053780048E71C4B984200D182E705D81A4B98425F
:1053880000D142E7194B3DE7194B984200D177E726
:10539800184B37E7184B194A80E6194BFBE70023EF
:1053A800184A7BE60130C0B2FF2D00D078E683E6CC
:1053B8000132D2B2FF2C00D183E6280050431818DE
:1053C8000478A142F4D16A46438813800379937024
:1053D80077E6C04611B4000010B4000010B5000014
:1053E80011B5000008D2000001C8000001D2000079
:1053F80008D3000009D30000C8AA011092A7011021
:085408002EAB011008AA0110EF
:10541000028813125940034B49005B5A12025A404A
:0854200002807047E4AC0110AA
:10542800F0B5069E040005A8077807A80588062099
:10543800002E04D0022A03D10D300A2D09D8F0BD60
:105448001120012AFBD10D38FF29F8D00F30052D86
:10545800F5D90020627001222170A370E7706660A0
:0A54680025816081A081A273E9E7AD
:10547200F0B5030085B00620002B14D09C7B0C30C5
:10548200002C10D05D78022D00D096E058891F893B
:105492000190019C586816199C78552C4DD10A36FA
:1054A200BE4202DB0A2005B0F0BD06008A180936AA
:1054B20002920395029A8A427AD0019A0D780132B9
:1054C200019C92B23555022A19D9B518EC1E2478DE
:1054D2001700FF2C0BD1AC1E2478FF2C07D1013D05
:1054E2002D78FD2D03D1019CF5550234A2B2140092
:1054F2001D890A340131AC42D4DA0192DAE7022A78
:105502000BD1047AFF2CF2D1447AFF2CEFD1847AAA
:10551200FD2CECD1C4720132E9E7012A0BD1C47926
:10552200FF2CE4D1047AFF2CE1D1447AFD2CDED1A8
:105532008472039ADBE70022D9E70936BE42B1DA68
:1055420006008A1808360292029A914230D0019AD5
:105552000D780132019C92B23555022A1AD9B5183A
:10556200EC1E24781700FF2C0BD1AC1E2478FF2CE4
:1055720007D1013D2D78FD2D03D1019CF555023453
:10558200A2B214001D8909340131AC4200DB89E763
:105592000192D9E7022AF4D1C479FF2CF1D1047A1D
:1055A200FF2CEED1447AFD2CEBD184720132E8E774
:1055B2006A4692885A81002075E71120012D00D099
:1055C20071E758891C898218551DA54200DB69E7DD
:1055D200FD2A00DD66E75D6892B28242EAD00E786B
:0C55E200441C281846710131A0B2F6E705
:1055EE00F0B5040085B00620002C5AD0A37B0C30F9
:1055FE00002B56D067680C38002F52D06378022BE0
:10560E0051D102AB1D1800232B80A278638921890A
:10561E00552A03D104301A188A4242DA09330A2075
:10562E008B423EDAFF233B707B70023BBB70002344
:10563E00FB7023783B71A2786389552A1AD1043303
:10564E007B71638904331B12BB71A378FB71E37802
:10565E003B7209233E0062899B189BB20093DB19B3
:10566E000193019BB3420FD031782800FFF7C9FE9A
:10567E000136F6E703337B71638903331B12BB716B
:10568E00A378FB710823E5E72B88009ABB5413001F
:10569E002A8801339BB21212FA54009B0233A38163
:1056AE00002005B0F0BD1120012BFAD163892289AB
:1056BE00591D07389142F4DAFD2BF2D8FF233B70C7
:1056CE007B702378BB7063890233FB70A378552BF4
:1056DE0000D1E3783B71022200236189BD1C481D75
:1056EE0080B2904206D92E7801329B19DBB292B26B
:0E56FE000135F6E7DB4306313B54A181D0E7CE
:10570C0030B5002B02D00624002A09D04D1E1124DE
:10571C00012D05D883810123002441718260C37659
:04572C00200030BD6C
:1057300070B504000D000620002C26D0E37E0C304E
:10574000002B22D06379022B00D030E1607E092843
:1057500000D95AE1FAF792FE0A003B0048005800CF
:105760006000700083008D001C011F01E378022B94
:1057700003D90023AC4AE3701380E278531CDBB2F8
:10578000E370A554032B01D0012070BD2368A74A04
:105790001B021B0A934213D1250000231235E3811B
:1057A0006382FF212800FFF733FEFF212800FFF767
:1057B0002FFEFD212800FFF72BFE01206076E4E795
:1057C00063782370A37863700223E370DCE7FD291C
:1057D00006D0200021761230FFF71AFE022319E0CE
:1057E00000230C206376D0E7FC2901D9FE2907D1DC
:1057F0002000257112302900FFF70AFE032309E07B
:10580000002304206376C0E7200021821230FFF7D6
:10581000FFFD04236376B7E72000238A0A021343BF
:1058200023821230FFF7F4FD238A022B00D90BE10B
:10583000002307206376A8E72000A1711230FFF74C
:10584000E7FD0023E381E371238A552D03D1032B68
:10585000EED90623DEE7032B09D10823DAE720007F
:10586000E1711230FFF7D4FD238A042BF5D0072312
:10587000D0E7A268002A03D100230620637684E7DC
:10588000E389A189994203D200230A2063767CE749
:105890002000591CE1811230D5542900FFF7B8FDD2
:1058A0006149A2790B88E089552A43D103281ED982
:1058B000A2681218151F2D78FF2D0FD1D51E2D7837
:1058C000FF2D0BD1951E2D78FD2D07D1013A1278B1
:1058D000FD2A03D10138E08101330B80E3890A8876
:1058E0009B180433228A934200D04DE7B5E7032882
:1058F0000FD1E279FF2AF1D1A2681078FF28EDD10B
:105900005078FD28EAD19278FD2AE7D1FB3AE2816E
:10591000E2E70228E2D1E088454A9042DED1A2685F
:105920001078FD28DAD15278FD2AD7D1FC3AE281ED
:105930009B18D2E703281AD9A2681218151F2D78D0
:10594000FF2D0FD1D51E2D78FF2D0BD1951E2D7853
:10595000FD2D07D1013A1278FD2A03D10138E081EB
:1059600001330B80E3890A889B180333BAE70328C5
:10597000F8D1FF2AF6D1A2681078FF28F2D150782A
:10598000FD28EFD19278FD2AECD1FB3AE281E7E7DE
:10599000A18209233EE7A38A0D02628A1D43A582E4
:1059A00000230E20AA4200D118006376EDE61120F4
:1059B000012B00D0E9E6607E052826D8FAF754FDD1
:1059C000031E273A4D5CE378012B01D90023E370D5
:1059D000E278531CDBB2E370A554022B00D0D3E66F
:1059E0002188134A0023914202D1E381A375E4E6A2
:1059F00001206278E07022706370C6E6FF2904D04F
:105A0000A37D2171CD18A575E8E6002302E7A389DF
:105A10000233994200DD37E7012900D808E7A37D6A
:105A20002182CD18A575E9E6802F0020FFFFFD003B
:105A3000FFFF0000A37DA171CD180023E381238A1D
:105A4000E171A575022B01D10523E3E604236376FA
:105A5000A368002B00D097E60EE7E3895A1CE28189
:105A6000A268D154A37DE289CD18238AA575023B93
:105A70009A4200D088E6E7E7A37DE175DB43DBB21D
:105A8000A37500220D20994200D1100062767CE6B9
