:020000041000EA
:1000000000B5324B212058609868022188439860DF
:10001000D860186158612E4B002199600221596106
:100020000121F02299502B49196001219960352056
:1000300000F044F80222904214D00621196600F024
:1000400034F8196E01211966002018661A6600F04E
:100050002CF8196E196E196E052000F02FF8012189
:100060000842F9D1002199601B49196000215960AB
:100070001A491B48016001219960EB211966A021F2
:10008000196600F012F800219960164914480160C1
:100090000121996001BC002800D000471248134993
:1000A000086003C880F30888084703B5996A0420EC
:1000B0000142FBD001200142F8D103BD02B5186610
:1000C0001866FFF7F2FF186E186E02BD00000240BE
:1000D000000000180000070000035F00212200005C
:1000E000F4000018222000A00001001008ED00E03C
:1000F00000000000000000000000000074B24E7A12
:1001000000000420E3010010C3010010E903001007
:10011000C1010010C1010010C1010010C101001097
:10012000C1010010C1010010C10100104503001001
:10013000C1010010C1010010C9030010D503001057
:10014000CD010010CD010010CD010010CD01001037
:10015000CD010010CD010010CD010010CD01001027
:10016000CD010010CD010010CD010010CD01001017
:10017000CD010010CD010010CD010010CD01001007
:10018000CD010010CD010010CD010010CD010010F7
:10019000CD010010CD010010CD010010CD010010E7
:1001A000CD010010CD010010CD010010CD010010D7
:1001B000CD010010CD010010CD010010CD010010C7
:1001C00000BE00BE00BE00BE00BE00BE00F03FF894
:1001D000103800BE00202049086006C881F3088856
:1001E00010471E48006800282DD10CA40ECC002911
:1001F00002D000F010F8F9E719491A4A002000E08F
:1002000001C19142FCD1184988471849884700BE6E
:10021000FDE701C901C29A42FBD370473C9A011025
:10022000C0000020C00F002048A9011000000420D9
:100230000000042048A90110001004200010042030
:100240000000000070470A480EF0F6FA0047EFF38E
:100250000580C0B27047000008ED00E0000000D04B
:10026000D00F0020FCAB0020CD02001071C900109F
:1002700057560000F8B5C046F8BC08BC9E4670470B
:10028000F8B5C04610B5064C2378002B07D1054BB6
:10029000002B02D0044800E000BF0123237010BDF2
:1002A000201500200000000084020010044B10B54F
:1002B000002B03D00349044800E000BF10BDC04636
:1002C000000000002415002084020010164B002BB3
:1002D00000D1144B9D46402292029A1A9246002168
:1002E0008B460F461348144A121A10F0E7F90F4BC9
:1002F000002B00D098470E4B002B00D098470020D1
:10030000002104000D000D48002802D00C480CF01C
:1003100032FB0FF055FD2000290008F0FDFF0CF026
:1003200027FBC04600000800000004200000000079
:1003300079920010D00F0020FCAB002077C900108C
:10034000000000007046C0082CD3EFF309808169DB
:1003500002390978002929D101B50FC8B8470CBC6A
:1003600003C29E461E4B06CB91421ED0083B1A602C
:10037000002909D0EFF3098020388863F0C0444693
:100380004D4656465F46F0C0906B1030F0C8A04610
:10039000A946B246BB4680F309882038F0C802203F
:1003A000C0430047EFF30880D1E770470D4A136858
:1003B0009942FAD801B5890053589C460FC8E047C6
:1003C0000CBC10609E46704701B508F04FFA03BCA4
:1003D0008E46C7E701B508F007FA03BC8E46C1E7B1
:1003E000F8030020F0790110102304E0202302E03C
:1003F000302300E040239C46F0B404AE7546E80884
:1004000001D3EFF309860E4F0FCE0FC70FBC0FC7F6
:100410004046494652465B460FC71DCE3100A60AEC
:1004200000D304316E0900D248311FC7EFF30980B1
:100430006946EFF3148663C7604601490BF034FE4A
:100440006CAB002001480421014B1847E005002057
:1004500049E8001002B471464908490009564900AC
:100460008E4402BC7047C04602B471464908490038
:10047000095C49008E4402BC7047C04603B4714613
:10048000490840004900095A49008E4403BC70479E
:10049000002243088B4274D303098B425FD3030AC3
:1004A0008B4244D3030B8B4228D3030C8B420DD3D6
:1004B000FF22090212BA030C8B4202D31212090264
:1004C00065D0030B8B4219D300E0090AC30B8B42A2
:1004D00001D3CB03C01A5241830B8B4201D38B0350
:1004E000C01A5241430B8B4201D34B03C01A5241F5
:1004F000030B8B4201D30B03C01A5241C30A8B4238
:1005000001D3CB02C01A5241830A8B4201D38B0222
:10051000C01A5241430A8B4201D34B02C01A5241C6
:10052000030A8B4201D30B02C01A5241CDD2C30938
:100530008B4201D3CB01C01A524183098B4201D3B4
:100540008B01C01A524143098B4201D34B01C01A9F
:10055000524103098B4201D30B01C01A5241C30817
:100560008B4201D3CB00C01A524183088B4201D386
:100570008B00C01A524143088B4201D34B00C01A72
:100580005241411A00D20146524110467047FFE7DE
:1005900001B5002000F0F0F802BDC0460029F7D0F8
:1005A00076E7704703460B437FD4002243088B4213
:1005B00074D303098B425FD3030A8B4244D3030BEA
:1005C0008B4228D3030C8B420DD3FF22090212BAAF
:1005D000030C8B4202D31212090265D0030B8B422B
:1005E00019D300E0090AC30B8B4201D3CB03C01A15
:1005F0005241830B8B4201D38B03C01A5241430BF0
:100600008B4201D34B03C01A5241030B8B4201D3DF
:100610000B03C01A5241C30A8B4201D3CB02C01A4A
:100620005241830A8B4201D38B02C01A5241430AC2
:100630008B4201D34B02C01A5241030A8B4201D3B1
:100640000B02C01A5241CDD2C3098B4201D3CB0158
:10065000C01A524183098B4201D38B01C01A524107
:1006600043098B4201D34B01C01A524103098B420B
:1006700001D30B01C01A5241C3088B4201D3CB00F6
:10068000C01A524183088B4201D38B00C01A5241D9
:1006900043088B4201D34B00C01A5241411A00D289
:1006A00001465241104670475DE0CA0F00D04942F2
:1006B000031000D34042534000229C4603098B4262
:1006C0002DD3030A8B4212D3FC22890112BA030AEA
:1006D0008B420CD3890192118B4208D3890192116C
:1006E0008B4204D389013AD0921100E08909C309F1
:1006F0008B4201D3CB01C01A524183098B4201D3F3
:100700008B01C01A524143098B4201D34B01C01ADD
:10071000524103098B4201D30B01C01A5241C30855
:100720008B4201D3CB00C01A524183088B4201D3C4
:100730008B00C01A5241D9D243088B4201D34B00DF
:10074000C01A5241411A00D20146634652415B1021
:10075000104601D34042002B00D549427047634602
:100760005B1000D3404201B5002000F005F802BD47
:100770000029F8D016E770477047C046D0400B1CE0
:10078000D1409C46203AD34018435242634693409E
:10079000184370479140031C90409C46203A934078
:1007A000194352426346D340194370478446101C94
:1007B00062468C46191C634600E0C0461FB501F036
:1007C00067FF002801D40021C8421FBD10B501F009
:1007D000BFFE4042013010BD10B501F059FF0028A6
:1007E00001DB002010BD012010BDC04610B501F096
:1007F0004FFF002801DD002010BD012010BDC046C4
:1008000010B501F0E1FE002801DC002010BD012040
:1008100010BDC04610B501F0D7FE002801DA002057
:1008200010BD012010BDC0468446081C6146FFE78C
:100830001FB500F0BFFC002801D40021C8421FBD35
:1008400010B500F041FC4042013010BD10B500F081
:10085000B1FC002801DB002010BD012010BDC04606
:1008600010B500F0A7FC002801DD002010BD01201C
:1008700010BDC04610B500F04FFC002801DC002080
:1008800010BD012010BDC04610B500F045FC002889
:1008900001DA002010BD012010BDC0461C2101233B
:1008A0001B04984201D3000C10391B0A984201D353
:1008B000000A08391B09984201D30009043902A231
:1008C000105C40187047C046040302020101010198
:1008D0000000000000000000002B15D1002A13D1F9
:1008E000002906DB01DC002806D00020C0434108B7
:1008F00002E080210906002007B4024801A1401847
:10090000029003BD75FEFFFF03B4684601B502986F
:1009100000F012F9019B9E4602B00CBC7047C04625
:10092000002B11D1002A0FD1002900D1002802D0BC
:100930000021C943081C07B4024802A140180290D4
:1009400003BDC04635FEFFFF03B4684601B50298FB
:1009500000F030F8019B9E4602B00CBC7047C046C8
:10096000F0B5CE46474615042D0C2E0080B5070481
:10097000140C3F0C9946030C7E435D43674363436D
:100980007F19340CE4199C46A54203D980235B02ED
:100990009846C4444B4643435143250C36046544B2
:1009A000360C2404A4195B19591820000CBC90467D
:1009B0009946F0BDF0B54F464646D646C0B5040050
:1009C00082B00D00914698468B422FD82CD04146DC
:1009D000484602F03DFD29000600200002F038FDE7
:1009E000331A9C46203B9A4600D576E04B46524649
:1009F00093401F004B46624693401E00AF4228D8EA
:100A000025D05346A41BBD41002B00DA7BE0002219
:100A10000023009201930123524693400193012346
:100A200062469340009318E08242D0D9002200230E
:100A3000009201930A9B002B01D01C605D6000981E
:100A4000019902B01CBC90469946A246F0BDA34253
:100A5000D7D900220023009201936346002BE9D0EE
:100A6000FB079846414672080A437B0866460EE03B
:100A7000AB4201D1A2420CD8A41A9D4101202419F5
:100A80006D410021013E24184D41002E06D0AB429D
:100A9000EED9013E24196D41002EF8D1009801993C
:100AA000534600196941002B23DB2B005246D340EB
:100AB0002A006446E2401C0053461500002B2DDB43
:100AC00026005746BE40330026006746BE4032002F
:100AD000801A994100900191ACE7624620239B1A4D
:100AE0004A46DA406146130042468A4017001F43D7
:100AF00080E7624620239B1A2A0066469A4023001C
:100B0000F3401343D4E76246202300219B1A0022BE
:100B1000009101920122DA40019280E7202362468F
:100B200026009B1ADE402F00B0466646B740464678
:100B30003B003343C8E7C046F0B583B016001F0042
:100B40000090019102F090FC04000D0002000B00E7
:100B500030003900FFF704FF009A019B121A8B4105
:100B6000089920000A604B60290003B0F0BDC04620
:100B7000F8B54746CE4643025B0A4400C20F9C4686
:100B80004800DD004B02240E5B0A000E80B598463B
:100B900026009146C90FDB00271A8A4229D0002F70
:100BA00015DD00284AD1002B00D095E0ED08FF2C80
:100BB00000D188E06B025B0AE6B25B02F605580AD8
:100BC0003043D20710430CBC90469946F8BD002F25
:100BD00000D087E0601CC0B2012800DCB6E0EE1A4D
:100BE000720100D5C5E0002E3DD100220026002371
:100BF000E3E7002F00DC96E000285DD0FF2C60D0FA
:100C00008022D20413431B2F00DDECE02022D21BF4
:100C100018009340F8405A1E93410343ED186B01AE
:100C20007BD50134FF2C00D1B7E0012207262A40F2
:100C30006B089A4D1D4015432E4029E0FF2CB5D07E
:100C40008022D20413431B2F00DDB2E02022D21BEE
:100C500019009340F9405A1E93410B43ED1A6B0162
:100C60005BD5AD01AE093000FFF718FE05388640B0
:100C7000844265DC041B330020200134E340041B64
:100C8000A640751EAE41334307261D0000241E40BA
:100C900001224B461A40002E04D00F232B40042B78
:100CA00000D004356B0100D480E70134E6B2FF2C9C
:100CB0002FD1FF26002380E7002B52D1FF2C00D03C
:100CC00074E70A00ED08002DF3D08023DB032B43EB
:100CD0005B025B0AFF2670E7013F002FBED0FF2CAE
:100CE000B1D163E7002C47D0FF2869D08024E40409
:100CF0007A4225431B2A00DDC5E02C002026D44083
:100D0000B21A95406A1E954125435D1B0400894631
:100D1000A5E7AB015B0A50E7002401224B461A40CD
:100D20006B07BAD142E7002F3BD10134E0B2012872
:100D30004ADDFF2CBDD00726ED186D082E40A7E731
:100D40000723574D241A35401E40A1E7002C1BD124
:100D5000002D6ED1002B00D19AE00A001D003C004E
:100D600024E7013F002F00D158E7FF2C00D04AE7CD
:100D7000A7E75E1B894676E7002D1CD10A00FF28F5
:100D80001FD004001D0011E7002D5DD1002B17D1ED
:100D900080230022DB03FF260FE70A00FF26002343
:100DA0000BE7002C21D1002D66D1FF28E9D11D00D1
:100DB00087E7012352E77A1CA7D0FA43FF2899D18D
:100DC0000A001D00FF24F1E6002E21D1002D4FD096
:100DD000002B4CD0ED186B019ED5314B07362E40C1
:100DE00001241D4054E7012318E7FF28DFD08024A9
:100DF000E4047F4225431B2F4DDC2026F61B2C00EC
:100E0000B540FC406A1E95412543ED18040006E7F5
:100E1000002DCCD0002B00D153E780216046C903C0
:100E2000084203D04046084200D11D000121114074
:100E300047E7002B00D1B9E6EA1A500125D507266D
:100E40005D1B2E40894623E7FF24002B00D1ADE631
:100E500080226046D203104204D04046104201D1A5
:100E60001D00894601224B46FF241A409EE62B00B6
:100E7000DD080A0000249DE67A1CC6D0FF43FF2847
:100E8000B9D11D001DE701253FE7151E00D044E73D
:100E90000022002391E60125B7E7C046FFFFFF7D52
:100EA000FFFFFFFBF8B557464E464546DE46440277
:100EB000E0B546008846640A360EC70F002E63D0A0
:100EC000FF2E24D08023E400DB041C43002399463A
:100ED0009B467F3E434642465D02D20F5B006D0A51
:100EE0001B0E9046924665D0FF2B55D080220021E4
:100EF000ED00D2047F3B1543F61A43464A467B4039
:100F00000F2A00D98DE06D48920082589746002C38
:100F100054D108239946063BFF269B46DAE7002575
:100F2000534602291BD0032900D1BFE0012928D054
:100F300030007F30002820DD6A0704D00F222A40CD
:100F4000042A00D004352A0103D530005C4A8030E1
:100F50001540FE2803DCAC01640AC2B201E0FF22A6
:100F600000246402D205600ADB07104318433CBC2E
:100F700090469946A246AB46F8BD0122101A1B289E
:100F80007CDD00220024ECE7002C1DD104239946CF
:100F9000033B00269B469DE7FF3E002D20D102210A
:100FA00043464A467B400A430F2AD8D84548920018
:100FB00082589746002D19D10121F1E70C2399465B
:100FC000093BFF269B4685E72000FFF767FC762656
:100FD000431F9C4000237642361A99469B4679E788
:100FE0004A4603231A439146032186E72800FFF768
:100FF00055FC431F36189D40763600217DE780243E
:101000000023E403FF22ACE700258023DB031C421E
:1010100028D01D4226D12B435C02640A4346FF229E
:101020009FE762016C01A24224D21B210025013EF0
:10103000012710006D005200002801DB944201D806
:10104000121B3D4301390029F3D11400621E944163
:1010500025436DE7BA46594625005346022900D07C
:1010600061E77CE78023DB031C436402640A3B00E6
:10107000FF2276E7121B1A210125D9E79E362A00A6
:10108000B5402C00C240651EAC411443620704D039
:101090000F222240042A00D00434620103D4A401A8
:1010A000640A00225DE7012200245AE78024E40359
:1010B0002C436402640AFF2253E7C046F058011033
:1010C000FFFFFFF73059011070B542004E024C008F
:1010D00045026D0A120EC30F760A240EC90FFF2AAD
:1010E0000FD0FF2C11D00120A24200D070BDB5421C
:1010F000FCD18B420DD0002AF8D12800451EA84112
:10110000F4E70120002DF1D1EBE70120002EEDD115
:10111000E9E70020EAE7C04670B54A004E02450202
:1011200044006D0A240EC30F760A120EC90FFF2C5D
:1011300015D0FF2A0ED0002C15D1002A01D1002E87
:101140001CD0002D14D08B4227D00220013B184028
:10115000013870BD002EEED002204042F9E7002D8C
:10116000FAD1FF2A0ED0002A0ED1002EEDD00BE0CE
:1011700001230139994308000130EAE70020002DDE
:10118000E7D0E2E7002EE7D18B42DED1944205DDC5
:101190000221581E08400138DBE70024A24204DC8B
:1011A000B542D2D80020B542D3D2581E012398436D
:1011B0000130CEE730B5420044024D02C30F480073
:1011C000640A120E6D0A000EC90FFF2A12D0FF2802
:1011D0000CD0002A12D1002819D1002D17D1002CD3
:1011E0002BD00220013B1840013826E0002DF0D022
:1011F000022022E0002CFBD1FF281FD000281FD1A5
:10120000002D1DD10220013B1840013815E0002CB3
:101210000ED08B42E5D10022904204DCAC42E0D8F3
:101220000020AC4209D2581E01239843013004E04B
:101230000123013999430800013030BD002DD7D179
:101240008B42CED18242E7DD0221581E0840013890
:10125000F3E7C046F0B54E4657464546DE46E0B594
:1012600043025B0A450083B00F1C99462D0EC60F42
:10127000002D57D0FF2D24D08020DB00C004184360
:10128000002381469A469B467F3D7C027A00FB0FF5
:10129000640A120E984623D0FF2A4BD0E300802424
:1012A0000020E4047F3A1C43AD186B1C47460193B1
:1012B000534677403A000F2B48D87D499B00CB58C6
:1012C0009F46002B00D085E008339A46063B9B469C
:1012D0007C027A00FB0FFF25640A120E9846DBD1D0
:1012E000002C00D090E0524601231A439246012080
:1012F000DBE74C4658461700022824D0032800D1CB
:10130000CFE00022002301284DD15802D205400A27
:10131000FF071043384303B03CBC90469946A246B1
:10132000AB46F0BD002B5BD104239A46033B00255E
:101330009B46AAE7FF35002C60D1524602231A4390
:1013400092460220B1E7FF220023DEE74B461B0C4A
:101350009C464B462604360C180461463300220C8A
:101360006446000C43434E435043544380191A0CC7
:101370001218964203D9802149028C4664441B040A
:101380001B0C1004C01883015E1EB341800E18436D
:10139000130C1B199B0103431C00230179D5012366
:1013A00062081C401443019A7F32002A4DDD630716
:1013B00004D00F232340042B00D00434230103D591
:1013C0003C4B019A1C408032FE2ABCDCA3015B0A24
:1013D000D2B29AE70C239A46093BFF259B4654E775
:1013E0001800FFF75BFA4A46431F76259A40002310
:1013F0006D4291462D1A9A469B4646E75246032374
:101400001A439246032050E72000FFF747FA431F94
:101410002D1A9C40763D002047E780230027DB0300
:10142000FF2272E7424666E74C463200584662E7C2
:1014300080234A46DB031A4222D01C4220D1234398
:101440005B025B0A4746FF225FE701239A1A1B2AC9
:1014500021DC23000199D3409E318C401A002300E7
:101460005C1EA34113435A0704D00F221A40042ADA
:1014700000D004335A0111D49B015B0A002244E7D7
:1014800080234A46DB0313435B025B0A3700FF22DB
:101490003BE7019587E70022002336E7012200237E
:1014A00033E78023DB0323435B025B0AFF222CE745
:1014B00070590110FFFFFFF7F8B54746CE464400CC
:1014C000C20F80B547024802400A8446664648007B
:1014D0007F0A240EF60025009046FB00000EC90F7F
:1014E000B146FF2800D185E001267140261A9142BD
:1014F00057D0002E43DD002800D07FE04946002968
:1015000000D1AAE0013E002E00D0F7E05B1A5A019C
:1015100000D48BE09B019C092000FFF7BFF9053840
:101520008440854200DDD3E0451B230020200135A7
:10153000EB40451BAC40621E944123430724002529
:101540001C40012241460A40002C04D00F211940C2
:10155000042900D00433590100D480E00135ECB2F5
:10156000FF2D00D0A3E0FF2400235B02E405580A0E
:10157000D207204310430CBC90469946F8BD002E7C
:1015800074D1601CC0B2012800DCA7E04A469C1A56
:10159000620100D5B6E0002CBED100220024002359
:1015A000E3E7002E00DC85E0002846D0FF2C49D080
:1015B00080224846D2041043814601221B2E09DCBA
:1015C00020204C46801B84404A462000F240441EA6
:1015D000A04102439B185A0128D50135FF2D00D1A7
:1015E000A8E00122072494491A405B080B401343EA
:1015F0001C40A6E7002E00D078E775E7FF2C54D0FA
:1016000080224946D2041143894601221B2E09DC5F
:1016100020214846891B88404A460100F240481E66
:1016200081410A439B1A5A0100D573E701224146C2
:101630000A40590700D089E711E04846002858D1F0
:10164000FF2C0CD1DB08002B00D18CE78020C003DD
:1016500003435B025B0AFF2487E7FF2C25D0DB08EE
:10166000FF2DF0D05B025B0AECB27EE7002C4DD080
:10167000FF2818D08024E404724223431B2A00DD93
:10168000C4E01C002025D440AA1A93405A1E93415E
:1016900023434A460500D31A884638E7721CF8D01F
:1016A000F243FF28EAD10A004B46FF25D7E79B010A
:1016B0005B0A5AE7002E41D1651CE9B2012945DDDC
:1016C000FF2D00D14FE707244B445B081C4038E74F
:1016D00007225A4B2D1A2340144032E7002C1DD10B
:1016E000002B7AD14B46002B00D191E00A00002557
:1016F000B5E7013E002E19D14B446CE7FF2C84D195
:10170000FF25ACE74A468846D41A05E7002BC5D129
:101710000A00FF28C8D005004B46A0E7002B49D19E
:101720004B46002B77D00A00FF2598E7FF2C00D00E
:1017300043E787E70A00FF24002316E7002C15D1B2
:10174000002B57D1FF28E6D14B467BE7002C20D158
:10175000002B57D04946002953D04B445A0168D535
:101760000724364A1C4001251340EAE6FF28EBD047
:101770008022D204764213431B2E53DC2025AD1B5E
:101780001A00AB40F2405C1EA34113434B440500DA
:1017900021E7002BD8D04946002900D152E780210B
:1017A000C9030F4200D14DE76046084200D049E727
:1017B0004B4647E74846FF25002800D14FE78022E7
:1017C000D203174204D06046104201D14B468846EE
:1017D00001224146FF250A4041E7484600281FD024
:1017E0001A1A500120D54A460724D31A1C408846AD
:1017F0000025A6E6741CC9D0F643FF28BCD14B4691
:1018000020E799464B460025DB082BE7012340E7FC
:1018100000220023A9E680230022DB03FF24A4E6A4
:1018200000251CE70123B1E7002AF1D013000025B1
:10183000FCE60025FAE6C046FFFFFF7DFFFFFFFB49
:1018400041024200C30F490A120E00207E2A0DD920
:101850009D2A0CD8802000040143952A0ADC96209A
:10186000821AD1404842002B00D108007047034A39
:101870009818FBE7963A9140F4E7C046FFFFFF7FD8
:1018800070B500283DD0C317C5185D40C40F2800AF
:10189000FFF704F89E22121A962A07DCD2B2082813
:1018A00033DD083885406802400A23E0992A0BDDC1
:1018B000052329001B1AD94003001B339D402B0030
:1018C0005D1EAB4119430D00052801DD431F9D40FE
:1018D0002B000F490B406E0709D00F263540042D11
:1018E00005D004335D0102D59F220B40121A9B01E3
:1018F000580AD2B24002D205400AE40710432043FE
:1019000070BD002400220020F4E76802400AF1E7DD
:10191000FFFFFFFBF0B54F464646D6460C000903D5
:10192000C0B5490A470F5E0039431F03DB0F9C46D1
:1019300065007B0A570F1F436D0DE40F760DA1461E
:10194000C000B846D200AB1B64457BD0002B5FDDE6
:10195000002E00D0A4E03E00164300D112E15E1E2E
:10196000002E00D09EE1871A4346B84280410125EF
:10197000C91A4042091A0B0200D431E149024E0A49
:10198000002E00D16EE13000FEF788FF0300083B17
:101990001F2B00DD61E120223900D21A9E40D14088
:1019A0009F400E439D4200DD51E15D1B6B1C1F2BD0
:1019B00000DD7CE12021C91A3D0030008F408840C5
:1019C000DD40791E8F41310007222843D940002590
:1019D00007433A40002A09D00F233B40042B05D08F
:1019E0003B1DBB42BF417F42C9191F000B0200D4FF
:1019F00026E26A1CC64B55056D0D9A4200D106E1E0
:101A0000C44AFF080A40530752023B43120B8EE0C0
:101A1000002B00D0B8E06B1C5B055B0D012B00DCDC
:101A200030E1871A4346B842B641CB1A76429E1B34
:101A3000330200D54CE13B003343A1D10022002406
:101A4000002570E0002B00DCE5E0002E00D183E0F3
:101A5000AF4EB54260D0802636043743B846382BA7
:101A600000DC3EE1434613431F007A1E97413F18B6
:101A700087428041404209180B0200D4B0E0A44BD9
:101A800001359D4200D1C3E0A24A7B080A400121F2
:101A90000F401F435108D30707221F433A4099E7DD
:101AA0009B4EB54238D0802636043743B846382B93
:101AB00000DDDCE01F2B00DC30E11E004746203E4D
:101AC000F740BC46202B04D04026F31A46469E40E1
:101AD0003243170063467A1E97411F43CCE0002B28
:101AE00000D104E24346134300D159E14B07C0083B
:101AF00018438023C9081B03194208D04546ED0846
:101B00001D4204D14346D008590708432900420F1B
:101B1000C9007F4D1143C0004B07CA087C49C0086B
:101B200003438D4268D012036D05120B6D0D002129
:101B300012031800130B0A0D12051A43764B2D05DC
:101B400013402B435B00E4075B08234319001CBCD4
:101B500090469946A246F0BD3E00164312D05E1E46
:101B6000002E00D000E18718874280414144404266
:101B7000091801250B0233D5022585E76446330099
:101B8000414610001D00C7E7002D00D0DAE00C0030
:101B90000443F3D05C1C00D19FE15D4CA64200D110
:101BA0002FE1DB43382B00DD66E11F2B00DD83E1F5
:101BB00020240500E41A0F00DD40D940A040434630
:101BC000A7405B1A441EA04198462F433843171A7A
:101BD000BA42924143465242991A64463500CAE6D7
:101BE00007223A40002A00D0F6E64B07CA084849C7
:101BF000FF083B438D4296D11900114300D19EE16D
:101C0000802109030A431203120B414D8FE715008F
:101C1000002200238BE7002B00D0C7E06B1C5F0580
:101C20007F0D012F00DCF1E0394DAB4200D1B9E06E
:101C300085180A00854289414244494251180722C9
:101C4000CF076D082F4349083A401D00C2E607221E
:101C50003049ED1A31403A40BCE63E002838864013
:101C600000279FE63800FEF719FE20308EE6434637
:101C700013431F007A1E9741C71BB8428041404260
:101C8000091A78E60E003B0006431343002D61D18C
:101C9000002E00D0F4E0002B00D11BE16446390097
:101CA000100039E71A4FBB427AD03300FFE630000C
:101CB0001F3DE840202B03D04021CB1A9E403743E4
:101CC0007B1E9F41072207433A400021002589E7F8
:101CD000171A4346BA42B641591A76428E1B6446D9
:101CE0004EE61F2B00DDADE020264746F61AB74032
:101CF000B9461700B246DF404E463E4337005646CF
:101D0000B240561EB24117434246DA408918AEE649
:101D1000FF070000FFFF7FFFFFFF0F8020264746E1
:101D2000F61AB740B9461700B246DF404E463E436A
:101D300037005646B240561EB24117434246DA407B
:101D4000891A99E77F4CA6425BD0802424045B4229
:101D5000214327E7002E0CD1002B00D1CBE06446B5
:101D600039001000774DD7E6764FBB4218D03300CC
:101D700075E6002B14D04B07C00818438023C90810
:101D80001B03194207D0FC081C4204D17907D00874
:101D90000843E14621004C46420FC9001143C000F0
:101DA000684DB9E61D0000220023C0E6002D5BD17E
:101DB0000D00054300D1E2E65D1C00D1B0E0614DAD
:101DC000AE421FD0DB43382B71DC1F2B00DD96E0C9
:101DD00020250F00ED1AAF40B9460700AA46DF40A4
:101DE0004D463D432F005546A840D940451EA841C9
:101DF00088440743BF1897429241514241443500FD
:101E00003AE6644635004146100085E60B00034380
:101E1000002D00D063E6002BF5D04346134300D1DC
:101E20007AE68718874280410722414440420918D8
:101E30003A400B0200D4D5E6434B01351940C9E5C1
:101E4000380069E61E004746203EF740BC46202B7E
:101E500004D04026F31A46469E403243170063469C
:101E60007A1E97411F4302E6364DAE42CAD0802506
:101E70002D045B422943A6E70843411E8841A6E69C
:101E8000002B00D148E6871A4346B842B641CB1A28
:101E900076429E1B33024BD5171A4346BA429241F3
:101EA000591A5242891A072264463A4092E5014380
:101EB0000F00791E8F419DE71C000F00203CE7407A
:101EC000202B03D04024E31A99400843411E884147
:101ED00038437CE60022002425E6171A4346BA421E
:101EE0009241591A5242891A6446350043E54146E7
:101EF0001000144D10E680220024120380E61D001D
:101F00000F00203DEF40BC46202B03D04025EB1AAC
:101F10009940084307006346781E87411F4369E7DD
:101F2000871897429B4141445B42C9183500A3E59D
:101F30003B003343CED0072231003A4052E6002323
:101F40001A00F4E5FF070000FFFF7FFFF0B55746DA
:101F5000DE464E464546E0B5834607000E03480080
:101F600085B092461C00360B400DCD0F002800D1E5
:101F70009DE0954B984239D08023F6001B041E4308
:101F8000924A7B0F3343994694460300634400937F
:101F900000230026FF00029323031B0B98466300D7
:101FA000E40F52465B0D019400D1B3E086498B42A9
:101FB00000D19EE04246D100802212040A435146DD
:101FC000490F11438B46814952468C460099634420
:101FD000CB1A0021D20000932B0063409A460F2EAB
:101FE00000D905E17A4BB6009B599F465B463343C7
:101FF000994600D0B8E002230826002700900293FB
:10200000CAE7CB463A0002990195019B9A460229FC
:1020100027D0032900D180E2012944D06D49009BDB
:102020008C4663441C00002C38DD530700D013E2BB
:10203000D2085B46DB0109D55946674B19408B46F0
:102040008021C9008C46009B63441C00634B9C426A
:1020500007DC5B4664055F075B0217431B0B620DE1
:1020600002E000230027584A00211B031C0B0B0D24
:102070001B05234314055A4A380013401C4353469A
:102080006400DB0764081C43210005B03CBC90469B
:102090009946A246AB46F0BD0122524201231B1BCA
:1020A000382B00DCADE1002200230027DCE75B4693
:1020B000334399465ED0002E00D18AE13000FEF70E
:1020C000EDFB03000B3B1C2B00DD7BE11D22D31A33
:1020D0005A460100DA4008398E4013005F46334308
:1020E00099468F403F4B00261B1A00930023029312
:1020F00052E7414653460B433B499B468C46009B67
:10210000634400935B46002B3BD1022300221E4315
:10211000022161E7434613439B4637D04346002BD9
:1021200000D162E14046FEF7B9FB03000B3B1C2BDC
:1021300000DD53E102004146083A914088461D21E6
:10214000CB1A5146D9400B0041460B439B465346A0
:1021500093401A00009B25499C46604403008C462E
:1021600063440093002137E70323B14600900C2617
:10217000029311E700230093013304260027029302
:102180000AE70323C3461E43032125E701331E4309
:102190000022012120E700239A46802300271B0309
:1021A000094A61E7802349461B03194200D1E2E056
:1021B0005946194200D0DEE00B431B0317001B0BEE
:1021C000A246014A50E7C046FF07000001FCFFFF9E
:1021D000B0590110FF030000FFFFFFFEFE070000E3
:1021E000FFFF0F800DFCFFFF01F8FFFFF30300006E
:1021F000D94500D9CBE000D1C6E03C0048460027D5
:10220000009B013B00935B46160E1B021E4313020C
:10221000984633041B0C9946310C0191FEF7BEF928
:102220004A4642430B04210C050019438A4207D950
:102230008919013D8E4203D88A4201D9851E891928
:10224000881A0199FEF7AAF909048C464A46210426
:1022500064464243090C030021438A4204D9891988
:10226000013B8E4200D8F1E02D041D43AB464346AE
:10227000891A4246280C12041D0C5B46140C2200DD
:102280001B041B0C5A4303946B434443029568435D
:102290001B19150CEB189C4203D980246402A44638
:1022A00060441C0C15041B042D0C20185D19814280
:1022B00077D373D00C1AA24A7D1BAF42BF4194461C
:1022C000009B7F426344E01B1C00864200D1DBE0A0
:1022D0000199FEF763F94A4642430B04290C0700B3
:1022E00019438A4207D98919013F8E4203D88A428D
:1022F00001D9871E8919881A0199FEF74FF9090437
:102300004A46894629044D464243090C03002943A5
:102310008A4207D98919013B8E4203D88A4201D9E2
:10232000831E89193F04891A3A00039F1A43380013
:1023300013041B0C584381460298150C6F4343430A
:1023400045434846000C8446DB1963449F4203D949
:10235000802040028446654448461F0C00041B044C
:10236000000C7D191818A94200D284E000D17FE04A
:1023700001231A4357E680234A461B0313431B03DA
:102380001B0BAA466F4A6FE6BA4200D935E74B46A7
:10239000DC0758087B081C43FF0734E70024AF42E2
:1023A00089D247444745A4415B466442A419641856
:1023B000013BA6421ED2A0426DD800D1B6E0241A3D
:1023C0009B4678E703005A46283B9A4000279146EF
:1023D00088E65846FEF762FA203072E6030052465D
:1023E000283B9A4093460022B4E65046FEF756FA40
:1023F00020309AE6A642E2D1B845DCD9341A9B4691
:1024000059E71F2B65DC504C0099A4465C4661449B
:1024100008008C4011008240D940501E82410C437C
:1024200014435A46DA401300620709D00F222240B3
:10243000042A05D02200141D9442894149425B18A8
:102440001A0262D50122002300270DE68A4200D835
:102450000AE7831E891907E70F231340042B00D1D5
:10246000E6E5171D9742924153429B44FA08E0E586
:10247000002800D1D7E57118531EB14227D3A942D5
:1024800015D358D01A0073E7002B00DC04E60123B3
:1024900000229B44CDE502234744474589415B42E6
:1024A0009C46494289190C19E344241A03E7434620
:1024B0005F0047459B41B8465B429E19023A891925
:1024C000A94200D054E7404500D051E7ABE51A00DF
:1024D000F6E71F215F4649420C1BE740202B07D03F
:1024E0001A49009B8C46634418005B4683401A439C
:1024F000501E82413A4307270023174009D00F217D
:10250000002311401400042995D122005F075B02CB
:102510001B0BD20817430022A6E5802359461B0354
:102520000B431B0317001B0B064A9DE5BD42B2D8A7
:102530009B460024BFE68045B9D31A00C3E7C046D6
:10254000FF030000FF0700001E0400003E0400001F
:10255000F0B54F464646D6468446C0B58046194E2D
:1025600018030F034D00000B5C0082463F0B6D0DFE
:10257000C90F9146640DDB0F0120B5420AD0B44269
:1025800003D0A54201D157450CD01CBC90469946BA
:10259000A246F0BD66463E43F7D1AC42F5D1544663
:1025A0001443F2D10120C845EFD1994207D0002D44
:1025B000EBD163461F433800471EB841E5E70020D2
:1025C000E3E7C046FF070000F0B54F464646D64653
:1025D0004D00C0B50E03C90F8A462C491F035C008D
:1025E0008046360B6D0D91463F0B640DDB0F8D421F
:1025F0001ED08C4216D0002D1ED130438446002CB4
:1026000001D13A4323D06246002A1AD09A4529D0F4
:10261000514602200139084001381CBC90469946B9
:10262000A246F0BD39001143E5D002204042F4E754
:102630003043FAD1AC420FD0002C0FD13A43E7D04F
:102640000CE00122013B934318000130E5E76346AB
:102650000020002BE1D0DBE73A43E6D19A45D7D101
:10266000A542D5DCA54205DBBE42D1D808D000206A
:10267000BE42D2D250460123013898430130CCE704
:10268000C845C5D80020C845F4D3C6E7FF070000F9
:10269000F0B54F464646D6464D00C0B50E03C90FAD
:1026A0008A462E491F035C008046360B6D0D91460D
:1026B0003F0B640DDB0F8D4218D08C4211D0002DE2
:1026C00018D130438446002C1ED13A431CD16346B6
:1026D0000020002B30D0514602200139084001383B
:1026E0002AE039001143EAD0022025E03043FBD133
:1026F000AC4226D0002C26D13A4324D151460220A8
:1027000001390840013817E06246002A0FD09A4587
:10271000E1D1A54205DBBE42DDD819D00020BE4282
:102720000AD25046012301389843013004E00122C7
:10273000013B9343180001301CBC90469946A246C9
:10274000F0BD3A43D0D19A45C5D1A542C3DCE0E7FC
:10275000C845C0D80020C845E3D3EDE7FF07000017
:10276000F0B55746DE464E464546E0B58346060080
:102770000F03480087B092461D003F0B400DCC0F61
:10278000002800D16FE0DE4B984238D08023FF0054
:102790001B041F43730F3B430193DA4B00279946F9
:1027A00000239B46F60081442B0369001B0B524615
:1027B0009846490DED0F002900D185E0D04B994294
:1027C00000D173E04346DA0080231B0413435246D2
:1027D000CC48520F84461343524600206144D20035
:1027E00089442100694000918C46012149448A4670
:1027F0000F2F00D990E0C449BF00CF59BF465B46B8
:102800003B43019300D06AE102230827002681465A
:102810009B46C9E732005846019B61460091022859
:1028200000D175E0032800D1FEE1012800D02CE1A1
:1028300000230027002600253F032A0D3F0BB34845
:1028400012053A4302401B051343009A5B00D1076F
:102850005B080B433000190007B03CBC904699461A
:10286000A246AB46F0BD5B463B43019300D12FE14E
:10287000002F00D1A5E13800FEF710F803000B3B54
:102880001C2B00DD96E11D22D31A5A460100DA40C6
:102890005E4608398F4013008E403B4301939C4BAA
:1028A00000271B1A994600239B467DE74146534665
:1028B0000B4393498C46E144002B00D01AE10222DD
:1028C0000220174300228CE7134300D10DE1434659
:1028D000002B00D181E14046FDF7E0FF02000B3AFA
:1028E0001C2A00DD72E10100434608398B409846FE
:1028F0001D239A1A5346D3401A00434613435246A7
:102900008A404946081A824989468144002068E77E
:102910007B4B002700268EE7140C1204120C1100CA
:10292000370C3604350C794328008C462E00604362
:102930006044834656432100300C80465846794314
:1029400040440291844506D98846802149028C463C
:10295000E044414602913604010C360C00048B46DB
:1029600081191E0C1B041B0C0391190079438C4622
:10297000280075436544A8465843050C45447743F1
:10298000A94203D9802149028C466744290C8C4610
:1029900039000004000C2D042D186144AB4405914E
:1029A0005946049101990F043F0C080C390051431A
:1029B0004243904602008C46090C8B4662437C439E
:1029C00044445C44A04503D98021490288464244DE
:1029D000210C884661460904090C8C46390059438C
:1029E000434370437E430F0CF6182404BE1964441D
:1029F00042448C46B34203D980235B02984640444C
:102A0000029B61469846049B370443449B46AB4572
:102A1000AD416B420D0405992D0C8C467F1967441E
:102A2000FD18A8465D462D19A542A441934664426F
:102A3000A446C344DC448F42BF4198459B41934523
:102A40009241A445A4415B427F421F43360C52424F
:102A50006442BF192243BF18624638184302D20DA0
:102A6000039913436A020A43501E82416146ED0DE9
:102A70002A434E023243D90100D4B3E00126500864
:102A800032400243DE0732435B08224C5444002CA0
:102A900062DD510709D00F201040042805D0101D19
:102AA0009042924152429B180200D90104D58024E1
:102AB0001948E400034054441848844200DD27E7E5
:102AC0005E075B02D2081F0B630516435B0DB2E67F
:102AD000002399460133042700269B4664E603231E
:102AE000019781460C279B465EE601220120174391
:102AF000002276E6032303201F43434671E6C046C7
:102B0000FF07000001FCFFFFF0590110FFFF0F80DD
:102B10000DFCFFFFFF030000FFFFFFFEFE070000AC
:102B20000023802700933F030026434B83E6019B4D
:102B30003200A446584670E6AC466EE680270199FE
:102B40003F0339422DD03B422BD11F433F033F0B64
:102B500000951600384B6EE601252D1B382D00DD43
:102B600066E61F2D40DC35481C00504416008240AC
:102B70008440EE40501E824134431443EB406207D0
:102B800009D00F222240042A05D02200141D9442AD
:102B9000804140421B181A023ED50123002700261F
:102BA00049E68027019B3F031F433F033F0B0094EF
:102BB000214B40E603005A46283B9A4000260192EA
:102BC0006DE65846FDF76AFE203057E60300524690
:102BD000283B9A401300002293E65046FDF75EFE24
:102BE00020307BE6CA4650E71F201E004042041BEF
:102BF000E640202D03D0124C5444A3401A43501EEB
:102C00008241324307260027164009D00F200023B7
:102C1000104014000428B9D122005E075B021F0B8C
:102C2000D2081643002306E680273F031F433F03D5
:102C30003F0B1600004BFEE5FF0700001E040000DE
:102C40003E040000F8B557464E464546DE460C00A9
:102C50000903E0B5490A460F5F0031431E03DB0F4D
:102C6000760A9B46530F3343C84E6500C000E40FFD
:102C7000D2006D0DA24681467F0D9C469046B7421C
:102C800000D1B9E05B46012673409B46EE1BA3458D
:102C900000D183E0002E63DD002F00D0B1E0634659
:102CA000134300D123E1731E002B00D0BAE1861A32
:102CB0006346B04280410125C91A4042091A0B02FD
:102CC00000D447E149024B0A98464346002B00D105
:102CD00089E14046FDF7E2FD0300083B1F2B00DDC4
:102CE0007CE120223000D21A4146D04099400200B7
:102CF0009E400A439D4200DD6AE15D1B6B1C1F2B59
:102D000000DD94E1202110003500C91A8E40DA4020
:102D10008840DD40711E8E411100072228430025A6
:102D200006433240002A09D00F233340042B05D03C
:102D3000331DB342B641764289191E000B0200D4FE
:102D40003DE26A1C914B55056D0D9A4200D119E187
:102D50008F4AF6080A40570752023743120B9BE08E
:102D6000002E00D0C5E06E1C7605760D012E00DC2D
:102D700048E16746861ACB1BB042BF417F42B84646
:102D80001F004346FF1A3B00B8461B0200D55FE117
:102D900037439AD100220024002579E0002E00DC80
:102DA000FAE0002F00D18DE0784B9D4267D0802360
:102DB00067461B041F43BC46382E00DC52E16346C5
:102DC00013435A1E93411E188642804140420918FF
:102DD0000B0200D4BEE06D4B01359D4200D1D2E024
:102DE0006B4A73080A4001210E401E435108D30765
:102DF00007221E43324095E71E00164300D045E7E8
:102E000040E7624B9D423AD0802367461B041F4334
:102E1000BC46382E00DDEBE01F2E00DC3AE133002B
:102E20006746203BDF403B00202E05D04027BF1BDC
:102E30006646BE40324390464646721E9641334334
:102E4000DAE0002B00D114E26346134300D168E1BD
:102E500080234E07C008C9081B030643194208D047
:102E60006046C008184204D163460100D2085E07DC
:102E70001643F3009946C900720F444D11434B4667
:102E8000DE08424B4F073743CA089D4200D16EE02F
:102E900012036D05120B6D0D00211203130B0A0DA9
:102EA00012051A433B4B2D0513402B435B00E407EF
:102EB0005B082343380019003CBC90469946A24663
:102EC000AB46F8BD6346134311D0731E002B00D0F0
:102ED00007E1861886428041614440420918012575
:102EE0000B0237D502257BE73E006146914635004F
:102EF000C5E75C46002D00D0E1E00B000343F3D0B2
:102F0000731C00D1ACE1214B9F4200D13AE1F34365
:102F1000382B00DD6FE11F2B00DD8CE120250E003A
:102F2000ED1AAE40B0460600AA46DE40454635439F
:102F30002E005546D940A8406346451EA8415B1A5D
:102F40009C463043161AB242924163465242991A45
:102F50003D00B4E607223240002A00D0E4E60B4BE5
:102F6000F6084F073743CA089D4200D090E73B0060
:102F7000134300D1A6E180231B031A431203120B53
:102F8000024D89E715000022002785E7FF070000B2
:102F9000FFFF7FFFFFFF0F80002E00D0C7E06B1CFC
:102FA0005E05760D012E00DCF0E0C84DAB4200D18D
:102FB000B9E085180A0085428941624449425118A6
:102FC0000722CE076D082E43490832401D00A9E6AE
:102FD000BF49ED1A114007223240A3E632002838DB
:102FE0008240002686E63000FDF758FC203073E66C
:102FF000634613435A1E9341C61AB0428041404271
:10300000091A5CE60E00674606431743002D5ED1A1
:10301000002E00D0F3E0002F00D11EE15C46614697
:1030200091462CE7A94FBE427BD01E00F1E610006E
:103030001F3DE840202B03D04021CB1A9A40164375
:10304000731E9E410722064332400021002583E77C
:10305000161A6346B2428041591A40420B1A9846EA
:103060005C4632E61F2E00DDABE02027BB1B9A46F4
:1030700063465746BB40994613004F46F3401F43F3
:103080003B005746BA40571EBA4113436246F240CE
:10309000891898E62027BB1B9A4663465746BB40D3
:1030A000994613004F46F3401F433B005746BA4032
:1030B000571EBA4113436246F240891A9CE7834B7C
:1030C0009F425FD080252D047342294320E7002EC4
:1030D0000CD1002F00D1D0E05C46614691467B4D7B
:1030E000CDE67A4FBE421CD01E0065E6002F18D0F8
:1030F000C0084E0706438020C9080003014208D0DB
:103100006346DC08044204D12100DA46D2085E0797
:103110001643F300994601245346C900720F114328
:103120001C406A4DABE61D0000220027B4E6002DCE
:1031300059D10B00034300D1D6E6731C00D1B2E095
:10314000624B9F421ED0F343382B6FDC1F2B00DDF8
:1031500097E020250E00ED1AAE40B0460600AA46C4
:10316000DE40454635432E005546A840D940451E11
:10317000A8418C440643B61896429241514261449C
:103180003D0025E63D006146914678E60B0003438D
:10319000002D00D055E6002BF5D06346134300D137
:1031A0006DE686188642804161444042091800223B
:1031B0000B0200D4D0E6464B01351940B2E5B146CA
:1031C0005DE633006746203BDF403B00202E05D004
:1031D0004027BF1B6646BE40324390464646721E9D
:1031E00096413343EFE5394B9F42CBD080252D04E8
:1031F00073422943A8E70843411E8841A2E6002FF5
:1032000000D13CE66346861ACF1AB0429B415B422E
:10321000FB1A98461B024ED5161A6346B2429241DB
:10322000591A5242891A5C4600227BE501430E007E
:10323000711E8E419FE71D000E00203DEE40B046FE
:10324000202B04D04025EB1A99400843814648467C
:103250004346411E8841184374E60022002417E6C5
:10326000161A6346B2429241591A5242891A3D00D7
:1032700025E561469146154D01E6802200241203A2
:1032800079E61D000E00203DEE40B046202B04D014
:103290004025EB1A9940084381464E464346711E2D
:1032A0008E411E4367E7861896429B4161445B420C
:1032B000C9183D008CE547463743CED0072241462A
:1032C000324049E600273A00E6E5C046FF07000025
:1032D000FFFF7FFF70B50C4E0D031C0349005B0020
:1032E0002D0B490D240B5B0DB14208D0064900207F
:1032F0008B4203D114432000441EA04170BD0543FE
:103300000120002DFAD1F1E7FF07000030B5144D80
:103310000A034B00120B5B0DC90F0024AB4211DDF9
:10332000104CA34210DC8024640322430E4CE41AA8
:103330001F2C0CDD0D48C31ADA4013005C42002933
:1033400000D11C00200030BD094BCC18FAE7094D14
:10335000E040AC4663449A4013000343EEE7C046A6
:10336000FE0300001D0400003304000013040000ED
:10337000FFFFFF7FEDFBFFFF70B500282DD0C317C7
:10338000C5185D40C40F2800FDF788FA154B1B1ABD
:103390005B055B0D0A2815DD0B38854000222D03E7
:1033A0002D0B002110002D030A0D2D0B12052A43B1
:1033B0000D4D1B052A4013435B00E4075B082343C4
:1033C000190070BD02002900153291400A000B213E
:1033D000081AC5402D032D0BE3E700240023002528
:1033E0000022DEE71E040000FFFF0F8010B5041E60
:1033F00025D0FDF753FA144B1B1A5B055B0D0A2809
:1034000012DD0B38844000222403240B002110001D
:1034100024030A0D240B120522430C4C1B052240E9
:1034200013435B00590810BD020021001532914082
:103430000A000B21081AC4402403240BE6E70023EA
:1034400000240022E2E7C0461E040000FFFF0F80B8
:1034500010B5002903D1FDF721FA203002E0081C45
:10346000FDF71CFA10BDC046F0B54E465746DE4685
:103470004546E0B50F00002183B006008946002FC5
:1034800006DA3900002746428F4101214942894628
:10349000002B07DA4946C94310008946190000236A
:1034A00042428B4134003D0092469846BB4269D867
:1034B00066D041465046FFF7CBFF834639003000C7
:1034C000FFF7C6FF5B461B1A9C46203B9B4600D578
:1034D00075E05146584681400B0051466046814098
:1034E0000A00BB4261D85ED034003D005946A41AA0
:1034F0009D41002900DA7AE0002100200126009099
:10350000019159468E400196614601268E406146E2
:103510000096002950D0D90756085F080E4363462D
:103520000EE0AF4201D1A6420CD8A41BBD4101213F
:1035300024196D410022013B64185541002B06D02F
:10354000AF42EED9013B24196D41002BF8D1009810
:1035500001995B4600196941002B3DDB2E00DE40DE
:1035600063462C00DC405B46002B4BDB34005D46A1
:10357000AC4023006446A6403200801A994103E023
:10358000B24296D9002000214B46002B04D0030004
:103590000C0000215842A14103B03CBC9046994622
:1035A000A246AB46F0BDB1429ED90021002000905A
:1035B000019161460029AED100980199E4E72023EA
:1035C000624651469B1AD940404600916146884068
:1035D000030000990B4380E7624620239B1A2A00D0
:1035E0009A40260013006246D6401E43B8E7614663
:1035F00020260127761A00200021F7400090019133
:10360000019781E76746202362463500BC409B1A3C
:10361000DD4023002B43ADE7024670B50A43920715
:103620002AD11E4DEE0104C808C9541B94433440EE
:1036300017D0D0B2D9B2401A2106014310D190B2AE
:1036400099B2401A210401430AD110021902000A5A
:10365000090A401A2102014302D1100E190E401A24
:1036600070BD9A42DFD010BA19BA884201D9012040
:1036700070BD0020C04370BD02780B78013001316D
:10368000002A09D09A4207D102780B780130013123
:10369000002A01D09A42EFD0D01A70BD0101010179
:1036A00070B5164E1649300003F05CFD154D164CF2
:1036B0002A1C03230121200000F0CEFE2A1CFA253B
:1036C0000323AD000221200000F0C6FE280003F015
:1036D000C9FD30000D4E0E4903F044FD321C03239A
:1036E0000121200000F0B8FE321C0323022120003B
:1036F00000F0B2FE280003F0B5FD70BDB81B00203D
:10370000305A011000001643A0260020000052434A
:043710004C5A0110FE
:10371400802310B5DB0002220249034800F0B0FA0E
:0C37240010BDC04610180020A026002098
:10373000E12170B5194D4902280002F029F928004D
:1037400001F03EFF0028FAD0E121154C09022000CB
:1037500000F0BAFA80212000C90501F0B9FB280069
:10376000104903F0FFFC0121200000F087FB032239
:103770000121200000F088FB0121200000F079FBEE
:103780000221200000F07AFB03220221200000F039
:103790007BFB0221200000F06CFB70BDB81B0020F9
:0837A000A0260020685A011068
:1037A80070B50C0016000021102205000CF082FFF5
:1037B800FF232B709123DB009C4200D19DE000D9B0
:1037C800C1E09C4B9C4200D96FE0013B9C4200D376
:1037D800EAE1712C0ED040D81C2C0BD00DD80C2C43
:1037E80008D003D80A2C05D0280070BD122C01D0AF
:1037F800182CF9D10023904A0AE01E2C00D17CE055
:1038080000D2C5E1402CF5D08C4B8B4A6B2CEBD108
:103818000020010151180C78B44200D0DDE14A784B
:103828002A704A686A608A68AA608A786A70CA6870
:10383800EA60002BD8D000210A019A181078864235
:1038480000D0D0E153782B7053686B609368AB60FD
:1038580093786B70D368EB60C6E73823FF339C42DC
:1038680000D19BE10DD80B3B9C42C3D003D8743CDC
:10387800012CBFD9B8E79B235B009C42B4D1704BA5
:1038880087E14223FF339C4200D189E101D8013B03
:10389800F3E7AF235B009C4200D17CE1B421694B84
:1038A800694A49008C42B3D09EE78723DB009C42DB
:1038B80023D025D8654B9C420CD00DD8644B9C4234
:1038C80000D291E7634B9C4200D86DE109339C42DA
:1038D80000D089E7604B11E0604B9C4204D005D8CA
:1038E8000A3B9C4200D07FE75D4B07E05D4B9C4262
:1038F80003D05D4B9C4200D076E75C4B5C4A87E77F
:103908005C4B9C420ED85C4B9C4209D25B4B9C4260
:10391800F3D000D268E75A4BE418012C00D963E7CA
:10392800584BEBE7584B9C42FAD003D80A3B9C42D1
:10393800F6D059E7554B9C4203D0554B9C4200D0DA
:1039480052E7544BDAE7544B9C4200D13FE15FD831
:10395800A023DB009C4227D028D8504B9C4218D08B
:103968000ED84F4B9C42DBD001D84E4BDFE74E4B75
:103978009C4203D00A339C4200D035E74B4BBDE74D
:103988004B4B9C4200D10DE105D84A4B9C4200D0DC
:103998002AE7494BB2E79B23DB009C4200D101E1B7
:1039A800464B9C4200D01FE7454BA7E7454B9C423E
:1039B80000D107E115D8444B9C4200D1DDE005D881
:1039C8000A3B9C4200D00FE7404B08E0404B9C422A
:1039D80000D1DBE03F4B9C4200D005E73E4B3F4A1D
:1039E80016E7FA231B019C4200D1EDE005D83C4BB9
:1039F8009C4200D0F8E63B4BF1E73B4B9C4200D1A0
:103A0800E2E03A4B9C4200D0EEE60023384AFFE65B
:103A1800384B9C42E2D000D991E0374B9C4200D110
:103A2800D8E079D8354B9C4200D1D0E06AD8344BE5
:103A3800E8E7C046E90300009C6301109C5A0110A6
:103A4800CC5B0110AC5A0110EC63011006040000B5
:103A5800F2030000F30300005C6001101A04000088
:103A68006C5F0110240400002E040000FC5B0110B0
:103A78003C64011057040000560400004204000092
:103A8800B4FBFFFF7C6701106A04000074040000A7
:103A98007E040000BC5F0110BE0F0000BA040000E5
:103AA8009C04000092040000A60400000C600110B1
:103AB800CE040000C40400001C5F0110F6040000DE
:103AC800AC6001103E080000DA070000DC64011059
:103AD800E4070000340800004C650110CC670110B1
:103AE800480800002C660110AA0F0000B40F00005F
:103AF8006C61011019A900002C100000D20F000001
:103B0800C80F00003B4B9C4203D03B4B9C4200D06B
:103B18006AE60023394A7BE682235B019C4259D03E
:103B280006D8374B9C4200D05EE60023354A6FE644
:103B3800354B9C42F9D035490023354AB2E6C823B3
:103B48001B029C4235D00CD8324B9C423AD003D849
:103B580031490023314AA5E6314B9C4226D0314BEE
:103B680046E7314B9C4227D009D8304B9C4200D1C4
:103B78002AE72F4B9C4200D036E62E4B2FE72E4BE0
:103B88009C421CD02D4B9C4200D02DE62C4B26E7A6
:103B980000232C4A3CE600232B4A39E62B4BADE6A2
:103BA8002B4BABE62B4BA9E62B4BA7E600232B4A66
:103BB8002EE600232A4A2BE600232A4A28E6002379
:103BC800294A25E6294B0AE70023294A20E600234B
:103BD800284A1DE60023284A1AE60130C0B2FF2C05
:103BE80000D016E625E60131C9B2FF2800D023E649
:103BF800FAE5C04618100000221000004C620110BF
:103C0800361000002C6301104A10000018A90000AB
:103C18009C5C011011B4000010B400000C5D011090
:103C280010B5000011B5000008D2000001C800005E
:103C380001D200009C66011008D3000009D30000DF
:103C48000C670110EC630110DC5A01102C5B0110A9
:103C58007C5B0110CC5E01108C6401107C5D01104E
:103C68002C5C0110EC5D01105C5E0110BC6501105C
:0C3C7800FC600110DC610110BC62011056
:103C8400F8B50E0080211700C9051A00040001F0E0
:103C940036F9A52300225B00E254182009F086F8C7
:103CA40005003A00310001F051FB2900A564200011
:103CB40001F040F92000FE22FF214C300CF0FCFC06
:043CC4002000F8BD27
:103CC80070B504000D0001F03CF9A064002804D18F
:103CD8004021200001F08DF970BD036829009B691F
:043CE8009847F9E719
:103CEC0010B50123162486B06C445B422380153337
:103CFC000293123B01930094002201F015FA2088E4
:043D0C0006B010BD30
:103D1000F0B587B005000F0003921E0001F015F901
:103D2000041EA86406D12800402101F066F9200095
:103D300007B0F0BD0399380000F09EFB030C05901E
:103D40000020DBB28342F3D00D9905AA1288280027
:0E3D50000191009331000CAB01F02FFAE8E76F
:103D6000A52330B55B00C35CC2184C3212788A427E
:103D700009D00022074C5500655BD3B28D4204D1B7
:103D8000A52252008354180030BD0132552AF2D1C9
:083D9000FF23F8E7FC670110B6
:103D980070B504000D00FD290FD81100FFF7DCFFF6
:103DA8000300FF3B5A1E934165194C352870DBB25E
:103DB8004221FF2802D0180070BD0421200001F024
:063DC80018F90023F7E7E3
:103DD00010B5FF2904D1FB3901F00FF9054807E0C0
:103DE00040184C300378542BF8D8034A5B00985A9B
:0C3DF00010BDC046FFFF0000FC67011082
:103DFC00F0B50E0085B01100039304001500FFF719
:103E0C00E1FF134B0700984210D129002000FFF767
:103E1C0067FF290002002000FFF7B8FF002811D02F
:103E2C0029002000FFF7CEFFB8420BD00A9B0100FF
:103E3C000193039B3200009320002B00FFF762FFDD
:103E4C0005B0F0BD2000422101F0D1F80020F7E7C9
:043E5C00FFFF000064
:103E600007B51300642200920A002221FFF7C6FF63
:023E70000EBD85
:0A3E720010B50122FFF7F3FF10BDA9
:0A3E7C0010B50022FFF7EEFF10BDA5
:103E880073B505000E001400FFF79EFF9123DB00B9
:103E9800984200D1AFE000D9CFE0954B984200D9C5
:103EA8007AE0013B984200D389E071280ED037D8D8
:103EB8001C280BD01CD80C2808D003D80A2805D0F9
:103EC8000020BCE1122801D01828F9D1032C00D019
:103ED8009AE161340094002332000A212800FFF798
:103EE80089FF0028ECD0834B009432000B21A3E11A
:103EF8001E2800D17FE044D34028E7D06B28DFD1CB
:103F0800032C00D080E100236134009432000A21A0
:103F18002800FFF76FFF0028D2D00094764BE4E723
:103F28003823FF3398424AD01CD80B3B9842CDD057
:103F380003D874380128C9D9C2E79B235B0098428B
:103F4800BED1032C00D08CE16134002300943200F0
:103F58004E212800FFF74EFF031E00D177E16423AE
:103F68000093DBE74223FF33984228D001D8013B76
:103F7800E5E7AF235B00984200D156E10A33984247
:103F88009ED1032CBFD0012C00D140E1042C97D145
:103F980060340094584BB9E78723DB0098422AD055
:103FA80032D8564B98420AD018D8554B984287D3E6
:103FB800544B984203D90933984200D080E7032C28
:103FC8001CD0012C00D17FE1042C00D183E1002C0E
:103FD80000D084E164230093002312E04A4B984206
:103FE800EDD001D80A3BE7E7484B984203D0484B4D
:103FF800984200D064E7032C00D063E16423009367
:10400800613B3200092117E1424B98420CD8424BE0
:104018009842D4D2414B9842EDD000D250E7404B61
:10402800C0180128CBD94BE73E4B9842C7D0D9D905
:104038003D4B9842C3D03D4BBEE73D4B984251D0D3
:1040480000D993E0A023DB009842B8D01AD8394BA6
:104058009842B4D00AD8384B9842B0D001D8374BE0
:10406800AAE7374B9842AAD00A33A5E7354B9842BE
:10407800A5D001D8344B9FE79B23DB0098429ED004
:10408800324B99E7324B984208D01DD8314B9842B1
:1040980004D014D80A3B984200D011E7032CADD0C5
:1040A800012C00D110E1042C00D114E1002C91D096
:1040B800102C00D004E764230093543BA1E7264B5F
:1040C8009842EBD0254BE6E7FA231B01984209D02A
:1040D80001D8234BDFE7234B984203D0224B984269
:1040E80000D0EDE6032C00D188E7012C68D1EBE085
:1040F800E9030000FF030000FF0F000006040000B2
:10410800F2030000F30300001A0400002404000076
:104118002E0400005704000056040000420400006A
:10412800B4FBFFFF6A040000740400007E04000072
:10413800BE0F0000BA0400009C04000092040000B6
:10414800A6040000CE040000C4040000F604000029
:104158003E080000DA070000E40700003408000009
:1041680048080000AA0F0000B40F0000614B9842F5
:1041780094D029D8604B9842B4D00AD85F4B984263
:10418800B0D001D85E4BAAE75E4B9842AAD05E4BEE
:10419800A5E782235B019842A4D001D85B4B9EE738
:1041A8005B4B98429ED05B4B984200D088E6032C2C
:1041B80000D123E7012C00D186E0042C00D18AE04D
:1041C800002C00D106E77BE6C8231B029842EED0FC
:1041D8000BD8514B984200D160E701D84F4BE3E729
:1041E8004F4B9842E3D04F4B55E74F4B9842DED0A8
:1041F80005D84E4B984200D150E74D4B4BE74D4BFD
:104208009842D4D04C4B46E7012C00D058E6633492
:104218000094002332000A212800FFF7EBFD002854
:1042280000D14DE6009400235FE6032C08D16423F7
:104238000093623B320008212800FFF7DBFD76BDC2
:10424800012C00D03CE6642300932300F2E700949D
:1042580032000A212800FFF7CDFD002800D07EE6B5
:104268002EE6012C15D163340023009432004E2130
:104278002800FFF7BFFD031E02D064230093D2E796
:10428800009432000A212800FFF7B4FD0028F4D179
:1042980016E6042C0DD160340094002332004E2120
:1042A8002800FFF7A7FD002800D058E60094234B0C
:1042B800CEE7002C00D003E66423320000934E21A1
:1042C800633BB9E7012C03D164230093633B98E671
:1042D800042C00D0ECE664230093603B91E6102C9C
:1042E80000D1E8E6052C00D0EAE56423009323001A
:1042F80087E6C04619A900002C100000D20F000064
:10430800C80F00001810000022100000361000002E
:104318004A10000018A9000011B4000010B40000F1
:1043280010B5000011B5000008D2000001C8000057
:1043380001D2000008D3000009D30000FF0F0000DD
:10434800F0B58DB0059312AB1B780E0011000693E3
:1043580004000292FFF738FD3A4B05000700984227
:1043680011D102992000FFF7BDFC0299020020003C
:10437800FFF70EFD00285FD002992000FFF724FD0B
:104388000500B84258D008AF320029003800FFF7BE
:1043980007FA3B7800260793FF2B16D0099B049356
:1043A8000A9B0393069B042B0FD81800FCF758F8B8
:1043B8000310363636000598FDF73EFA0026049BB2
:1043C800984202DB039B98421DDD30000DB0F0BD22
:1043D8000498FDF751FA061C0398FDF74DFA311CB5
:1043E800FDF766F81849071C0598FCF7BDFB011C8A
:1043F800381CFCF72BFF1549FCF750FD311CFCF766
:10440800B3FBFDF719FA642300900193079A029B06
:1044180029002000FFF778FC0600D6E77B78069A8B
:1044280000269342D1D1F9680598FCF737FD0AF0C8
:1044380043FDFDF701FAC2E74221200000F0D9FD53
:104448000026C2E7FFFF00000000C8420000484302
:1044580013B50400002B02D00020032B06D10093D3
:0E4468002000131C0A000321FFF76AFF16BD97
:10447800002373B500939123DB00984200D18FE0AD
:1044880000D9AEE0904B984200D966E0013B9842D3
:1044980000D376E0712814D035D81C2811D013D851
:1044A8000C280ED009D80A280BD00023019301AAA2
:1044B800538810881B04184376BD122801D0182889
:1044C800F3D10023814A09E01E2800D182E141D3BB
:1044D8004028F6D07E4B7D4A6B28E6D10020062680
:1044E80034004443141925788D4200D07AE1684697
:1044F800628802802279827000220625934200D0C9
:104508007BE1009BD2E73823FF33984200D164E176
:104518000ED80B3B9842D4D003D874380128D0D990
:10452800C3E79B246B4B64006B4AA042D6D0BCE720
:104538004223FF33984200D14FE103D8A024674BB0
:104548006400F1E7AF235B00984200D147E10A33EA
:104558009842AAD10023604AC0E78723DB0098422B
:104568001ED01FD85E4B98420BD00CD85D4B98429A
:1045780000D29AE75C4B984203D90933984200D09D
:1045880093E75A4B27E15A4B9842FAD001D80A3B95
:10459800F4E7584B984203D0574B984200D084E731
:1045A800564B18E1564B98420ED8564B984209D2B2
:1045B800554B9842F4D000D277E7544BC0180128E5
:1045C80000D972E7524B06E1524B9842FAD003D811
:1045D8000A3B9842F6D068E74F4B9842F2D04F4BCF
:1045E800F7E74F4B984246D048D8A023DB009842C3
:1045F8000CD01ED84B4B9842C3D00ED84A4B984289
:1046080004D005D8494B984200D04EE7484BE2E029
:10461800484B9842B5D00A33B0E7474B9842B0D0E0
:1046280001D8464BAAE79B23DB009842A9D0444B0C
:10463800E9E7444B984208D00FD8434B984204D03E
:1046480006D80A3B984200D02FE700233F4A45E7A7
:104658003F4B9842F9D03F4BF4E7FA231B019842AD
:1046680009D001D83C4BEDE73C4B984203D03C4B7A
:10467800984200D019E700233A4A2FE73A4B98426C
:10468800E3D000D984E0394B9842F4D00AD8384BAB
:104698009842F0D001D8374BEAE7374B9842EAD036
:1046A800364BE5E782235B019842E4D001D8344BCE
:1046B800DEE7344B9842DED0334B984200D0F4E624
:1046C8000023324A0AE7C046E9030000746A011071
:1046D8006E6A0110386D01103A6B0110506D0110AF
:1046E80006040000F2030000F3030000D86F011075
:1046F8001A040000240400002E040000CC6F0110EE
:10470800570400005604000042040000B4FBFFFFF9
:104718005A6F01106A040000740400007E0400004F
:10472800BE0F0000BA0400009C04000092040000C0
:10473800966F0110A6040000CE040000C404000017
:10474800F60400003E080000DA070000F06F0110D0
:10475800E40700003408000048080000AA0F000021
:10476800B40F0000A668011019A900002C10000061
:10477800D20F0000C80F000018100000221000001F
:10478800361000004A10000018A900006E6D0110D4
:10479800C8231B02984293D00BD81E4B984200D1D5
:1047A80053E701D81C4B88E71C4B984288D01C4B18
:1047B80048E71C4B984200D182E705D81A4B98422B
:1047C80000D142E7194B3DE7194B984200D177E7F2
:1047D800184B37E7184B194A80E6194BFBE70023BB
:1047E800184A7BE60130C0B2FF2D00D078E683E698
:1047F8000132D2B2FF2C00D183E6280050431818AA
:104808000478A142F4D16A464388138003799370EF
:1048180077E6C04611B4000010B4000010B50000DF
:1048280011B5000008D2000001C8000001D2000044
:1048380008D3000009D30000486F0110126C011062
:08484800AE6F0110886E011033
:10485000028813125940034B49005B5A12025A4016
:08486000028070476471011031
:10486800F0B5069E040005A8077807A80588062065
:10487800002E04D0022A03D10D300A2D09D8F0BD2C
:104888001120012AFBD10D38FF29F8D00F30052D52
:10489800F5D90020627001222170A370E77066606C
:0A48A80025816081A081A273E9E779
:1048B200F0B5030085B00620002B14D09C7B0C3091
:1048C200002C10D05D78022D00D096E058891F8907
:1048D2000190019C586816199C78552C4DD10A36C6
:1048E200BE4202DB0A2005B0F0BD06008A18093676
:1048F20002920395029A8A427AD0019A0D78013285
:10490200019C92B23555022A19D9B518EC1E2478A9
:104912001700FF2C0BD1AC1E2478FF2C07D1013DD0
:104922002D78FD2D03D1019CF5550234A2B214005D
:104932001D890A340131AC42D4DA0192DAE7022A43
:104942000BD1047AFF2CF2D1447AFF2CEFD1847A76
:10495200FD2CECD1C4720132E9E7012A0BD1C479F2
:10496200FF2CE4D1047AFF2CE1D1447AFD2CDED174
:104972008472039ADBE70022D9E70936BE42B1DA34
:1049820006008A1808360292029A914230D0019AA1
:104992000D780132019C92B23555022A1AD9B51806
:1049A200EC1E24781700FF2C0BD1AC1E2478FF2CB0
:1049B20007D1013D2D78FD2D03D1019CF55502341F
:1049C200A2B214001D8909340131AC4200DB89E72F
:1049D2000192D9E7022AF4D1C479FF2CF1D1047AE9
:1049E200FF2CEED1447AFD2CEBD184720132E8E740
:1049F2006A4692885A81002075E71120012D00D065
:104A020071E758891C898218551DA54200DB69E7A8
:104A1200FD2A00DD66E75D6892B28242EAD00E7836
:0C4A2200441C281846710131A0B2F6E7D0
:104A2E00F0B5040085B00620002C5AD0A37B0C30C4
:104A3E00002B56D067680C38002F52D06378022BAB
:104A4E0051D102AB1D1800232B80A27863892189D6
:104A5E00552A03D104301A188A4242DA09330A2041
:104A6E008B423EDAFF233B707B70023BBB70002310
:104A7E00FB7023783B71A2786389552A1AD10433CF
:104A8E007B71638904331B12BB71A378FB71E378CE
:104A9E003B7209233E0062899B189BB20093DB197F
:104AAE000193019BB3420FD031782800FFF7C9FE66
:104ABE000136F6E703337B71638903331B12BB7137
:104ACE00A378FB710823E5E72B88009ABB541300EB
:104ADE002A8801339BB21212FA54009B0233A3812F
:104AEE00002005B0F0BD1120012BFAD16389228977
:104AFE00591D07389142F4DAFD2BF2D8FF233B7093
:104B0E007B702378BB7063890233FB70A378552BBF
:104B1E0000D1E3783B71022200236189BD1C481D40
:104B2E0080B2904206D92E7801329B19DBB292B236
:0E4B3E000135F6E7DB4306313B54A181D0E799
:104B4C0030B5002B02D00624002A09D04D1E1124AA
:104B5C00012D05D883810123002441718260C37625
:044B6C00200030BD38
:104B700070B504000D000620002C26D0E37E0C301A
:104B8000002B22D06379022B00D030E1607E09280F
:104B900000D95AE1FBF772FC0A003B0048005800BC
:104BA0006000700083008D001C011F01E378022B60
:104BB00003D90023AC4AE3701380E278531CDBB2C4
:104BC000E370A554032B01D0012070BD2368A74AD0
:104BD0001B021B0A934213D1250000231235E381E7
:104BE0006382FF212800FFF733FEFF212800FFF733
:104BF0002FFEFD212800FFF72BFE01206076E4E761
:104C000063782370A37863700223E370DCE7FD29E7
:104C100006D0200021761230FFF71AFE022319E099
:104C200000230C206376D0E7FC2901D9FE2907D1A7
:104C30002000257112302900FFF70AFE032309E046
:104C4000002304206376C0E7200021821230FFF7A2
:104C5000FFFD04236376B7E72000238A0A0213438B
:104C600023821230FFF7F4FD238A022B00D90BE1D7
:104C7000002307206376A8E72000A1711230FFF718
:104C8000E7FD0023E381E371238A552D03D1032B34
:104C9000EED90623DEE7032B09D10823DAE720004B
:104CA000E1711230FFF7D4FD238A042BF5D00723DE
:104CB000D0E7A268002A03D100230620637684E7A8
:104CC000E389A189994203D200230A2063767CE715
:104CD0002000591CE1811230D5542900FFF7B8FD9E
:104CE0006149A2790B88E089552A43D103281ED94E
:104CF000A2681218151F2D78FF2D0FD1D51E2D7803
:104D0000FF2D0BD1951E2D78FD2D07D1013A12787C
:104D1000FD2A03D10138E08101330B80E3890A8841
:104D20009B180433228A934200D04DE7B5E703284D
:104D30000FD1E279FF2AF1D1A2681078FF28EDD1D6
:104D40005078FD28EAD19278FD2AE7D1FB3AE2813A
:104D5000E2E70228E2D1E088454A9042DED1A2682B
:104D60001078FD28DAD15278FD2AD7D1FC3AE281B9
:104D70009B18D2E703281AD9A2681218151F2D789C
:104D8000FF2D0FD1D51E2D78FF2D0BD1951E2D781F
:104D9000FD2D07D1013A1278FD2A03D10138E081B7
:104DA00001330B80E3890A889B180333BAE7032891
:104DB000F8D1FF2AF6D1A2681078FF28F2D15078F6
:104DC000FD28EFD19278FD2AECD1FB3AE281E7E7AA
:104DD000A18209233EE7A38A0D02628A1D43A582B0
:104DE00000230E20AA4200D118006376EDE61120C0
:104DF000012B00D0E9E6607E052826D8FBF734FBBE
:104E0000031E273A4D5CE378012B01D90023E370A0
:104E1000E278531CDBB2E370A554022B00D0D3E63A
:104E20002188134A0023914202D1E381A375E4E66D
:104E300001206278E07022706370C6E6FF2904D01A
:104E4000A37D2171CD18A575E8E6002302E7A389AB
:104E50000233994200DD37E7012900D808E7A37D36
:104E60002182CD18A575E9E6902A0020FFFFFD00FC
:104E7000FFFF0000A37DA171CD180023E381238AE9
:104E8000E171A575022B01D10523E3E604236376C6
:104E9000A368002B00D097E60EE7E3895A1CE28155
:104EA000A268D154A37DE289CD18238AA575023B5F
:104EB0009A4200D088E6E7E7A37DE175DB43DBB2E9
:104EC000A37500220D20994200D1100062767CE685
:104ED00070B50D1C80210400C905281CFBF7B0FC2F
:104EE00000280AD1FE21281C8905FBF7A9FC012313
:104EF000002803D11033636470BD022323710120A5
:024F0000FAE7CE
:104F0200022370B50371002343718381436415004A
:104F12000400FFF7DCFF002D06D0280007F05FFF3A
:104F22000123A060A5816371220000233B32A37795
:064F32002000137070BDA9
:104F3800002903D10623436408007047016001205B
:024F4800FBE785
:044F4A000068704744
:104F4E00F0B589B01F000EAB1B880D00069316231B
:104F5E0002A95B1804001A80002F35D000680028C3
:104F6E0032D000F0EBF9061E34D0069B002B33D066
:104F7E0022790592022A31D1A38929000293A368CE
:104F8E002500019300231035009328000333FFF70B
:104F9E0064FC6B4616219A8A02ABC9182800FFF7EB
:104FAE0081FC6B4639001A7E2800FFF77BFC280037
:104FBE00FFF736FD051E17D12068A28B03686169C5
:104FCE005B699847656402E006230026636430003F
:104FDE0009B0F0BD0B23F8E70F23F6E7531E594235
:0C4FEE004B41DBB20593C7E70026EBE760
:044FFA004164704757
:104FFE00F0B589B005930EAB04001B8800680791CD
:10500E0016000693002839D0002B02D0059B002BEA
:10501E0034D000F093F9051E34D0552E34D0230031
:10502E00002710330493A38922790293A368009773
:10503E000193079933000498FFF70FFC0600B8425E
:10504E0017D1069A05990498FFF72CFC0600B84272
:10505E000FD10498FFF7E4FC0600B84209D120688E
:10506E00A28B036861695B699847A38B984201D054
:10507E0014263D006664280009B0F0BD0623636463
:0C508E000025F8E70B23FAE70223F8E7FF
:10509A00F7B5040000680E0017000193002813D02A
:1050AA00002A01D000290FD000F04AF9002810D0B8
:1050BA002500203521793B0032002800FFF741FD09
:1050CA00002808D0002528E006230025636428006C
:1050DA00FEBD0B23F9E702F0B0F80600206803686A
:1050EA009B689847002807DC02F0A7F8019B801B01
:1050FA009842F3D30320E5E720680368DB68984702
:10510A00C1B22800FFF72FFD00280BD12379022B0B
:10511A0005D1E31DDB7F552BE6D16064D7E7012B70
:0A512A00E2D1FAE70128DFD0CCE75C
:10513400F0B587B004000CA820C803910688002DA0
:1051440025D0002B29D0B34229D8FE2929D0207993
:105154008446674605A8022F25D104270270837070
:1051640012121B124270C3700300009702220399AB
:105174002000FFF742FF00280BD00E9B32002900CD
:105184002000FFF788FF002803D0E08D03E006230A
:1051940063640120404207B0F0BD0923F8E71323FC
:1051A400F6E70523F4E7614600270129DCD1027004
:0651B40043700237D8E74A
:1051BA0073B50E0006A90988050000913100FFF7B2
:1051CA00C1FE041E02D10024200076BDFE2EFBD0B3
:1051DA000022079B11002800FFF75AFF0028F2D08F
:1051EA002B79022B07D10835EC7F7D331C406342B3
:1051FA005C41E4B2E8E7012BE5D10835EB7F002BEF
:0A520A00E2D025221342DFD1DDE7D8
:0C52140010B5036801699B69984710BD44
:1052200010B50400806803685B6A98470023237107
:0252300010BDAF
:0C52320010B5806803681B69984710BD28
:0C523E0010B5806803685B69984710BDDC
:04524A000069704740
:1052500070B504000D00806821610368DB69984720
:1052600029000C48FBF714F96061E068431C0ED07C
:10527000C0B2012102F01CF8E3680021D8B202F0AC
:1052800055F8E368D8B202F077F80028F9D1012385
:08529000237170BD00366E01B0
:1052980070B50400C0680D00431C09D0C0B20121DC
:1052A80002F040F8E368D8B202F062F80128F9D1B8
:1052B800A068290003681B689847E3680500013364
:1052C8000ED0A0680368DB689847E3680021D8B26D
:1052D80002F028F8E368D8B202F04AF80028F9D1B9
:0452E800280070BD6D
:1052EC0070B50400C0680D001600431C09D0C0B294
:1052FC00012102F015F8E368D8B202F037F8012862
:10530C00F9D1A0682900036832005B689847E3680C
:10531C000500013311D0A0680368DB689847606909
:10532C0001F09EFFE3680021D8B201F0F9FFE368B9
:0E533C00D8B202F01BF80028F9D1280070BD8D
:04534A00007970472F
:1053500000230371044B816008330360E1231B02C7
:0C536000C26003617047C0466473011016
:10536C0070B5124C12492068124A134B884213D163
:10537C006068904210D1A06898420DD100250D2094
:10538C00256001F043FF04000C4809F04FFA0300BC
:10539C0001202900A0409847216009480021A36002
:1053AC00626009F0B1F80023236070BDC00F0020CB
:1053BC00DE8116F0299B72BD7ABE59D3554200008E
:0453CC0020A1070015
:1053D0001B220A4B1A600A4B023A1A60094B01322F
:1053E0001A60094B08321A60084B05321A60084BE4
:1053F000033A1A60074B013A1A60704754150020AF
:10540000501500204C1500203C15002040150020B0
:0854100044150020481500209E
:105418000B00F0B50F2700260E33023902003A4080
:10542800D5B22C0000093034092A00DD07341C707D
:0A5438005E70023B9942F1D1F0BD15
:045442001E20704771
:025446007047AD
:1054480013B50400684608F0EBFC21000098FFF74C
:10545800DFFF210001981031FFF7DAFF202016BD89
:1054680010B50D2001F0D4FE0400044809F0E0F95D
:10547800030001200021A0409847C0465542000083
:0254880070476B
:0A548A0010B50C220BF083F810BDE2
:0E549400C36810B5002B01D09B68984710BD6F
:0C54A20010B50400FFF7F5FF200010BD5E
:0454AE000020704723
:1054B4009A2370B55B00C35C05001400002B1CD15B
:1054C4000368DB699847F0210C4B09012140C91896
:1054D4004B1E9941F0232340303B5A4253410F2243
:1054E4000731144001330D3A012C02D0023C6242D0
:1054F4006241A869006804F05CF970BD00FDFFFF1B
:105504009A2310B55B00C35C0400002B05D1A3698A
:0C551400186804F07EF90028F9D010BDE2
:105520009A2370B55B00C55C0400002D14D183691B
:10553000002B0CD01868002809D00368DB68984756
:10554000A36904211D60A06907F066FCA561002322
:0A555000FC34E3622363636370BD63
:10555A009A23F7B55B00C35C0400002B2AD180258F
:10556A00FF276D00A369186804F034F9002821D0D8
:10557A0006F079FFA369012218686B46DE1D0368ED
:10558A0031005B6998472300FC335A6BAA420ED05C
:10559A005A6BAA420BD02200D96A3078283250546A
:1055AA00DA6A01323A40DA625A6B01325A6306F019
:0655BA0070FFD7E7F7BD0A
:1055C0009A2210B552000300805C002806D001200A
:1055D00001F048FE054801F0B2FA10BD9B69002BAE
:1055E000FBD01868431E9841C0B2F6E7581500205A
:1055F00070B504000D0001F0A2FA03000020834200
:1056000004D0236829001B6C2000984770BD08B4A3
:10561000024B9C46024BC01A08BC6047F155001073
:045620004001000045
:1056240037B56B46DC1D9A2321705B00C35C050013
:10563400002B04D0C9B20A48FFF7D8FF3EBDAB69BE
:10564400186804F0E6F80028F9D0AB69012218685C
:10565400210003681B6998470130431E9841EDE718
:0456640058150020B5
:10566800F7B5060001911700002401F064FAA04282
:105678000DD0A7420BD93D1B402D00D94025019BD9
:105688002A001919300000F081FF6419F1E72000A1
:10569800FEBD08B4024B9C46024BC01A08BC6047CA
:0856A8006956001040010000EA
:1056B0009A2370B55B00C35C05000E001400002B3C
:1056C00005D00F48FFF7D0FF0400200070BDAB6984
:1056D000186804F0A0F80028F9D0AB6901211B6814
:1056E00018005B6F74301B6B9847AB692200186819
:1056F000310003681B699847431CE6D10024E4E7A6
:045700005815002018
:10570400F0B5C3B0050001F003FA932380229B0097
:10571400E918CB6852000400D31A984201DDCC6822
:10572400141B01AB220002A92800A82601F02DF8C1
:105734000021019802AB241A76001C1993238022BD
:105744009B00EB18DF685200974211D081420FD0C2
:10575400DF6897420AD05A68675CAA1897555A6856
:105764000132D2B25A60DA680132DA600131E5E717
:0457740043B0F0BD91
:1057780070B5040000F0E8FB2000FFF7BFFF93239B
:105788009B00E318DD68200000F0E5FB280070BDF1
:1057980008B4034B9C46034BC01A08BC6047C0467C
:0857A8007957001040010000D8
:1057B0009A2310B55B00C35C0400002B05D006489B
:1057C000FFF7DAFF0400200010BDFC3406F050FEA5
:0C57D000646B06F063FEF6E7581500203D
:1057DC0070B5040000F0B6FB2000FFF78DFF93239B
:1057EC009B00E318DA68002A09D0A8229B685200B3
:1057FC00E3189D5C200000F0ACFB280070BD012577
:10580C006D42F7E708B4034B9C46034BC01A08BC27
:0C581C006047C046DD570010400100004E
:105828009A2310B55B00C35C0400002B05D00B481D
:10583800FFF7D0FF0400200010BD06F015FE23007E
:10584800FC335A6B002A05D01B6B2834E45C06F045
:1058580021FEF0E701246442F9E7C046581500200C
:1058680070B5040000F070FB2000FFF747FF93239A
:105878009B00E318DA68002A10D0A8219A6849002A
:10588800A218555C9A680132D2B29A60DA68013A75
:10589800DA60200000F05FFB280070BD01256D4232
:1058A800F7E708B4024B9C46024BC01A08BC604795
:0858B8006958001040010000D6
:1058C0009A2310B55B00C35C0400002B05D00E4882
:1058D000FFF7CAFF0400200010BD06F0C9FD230039
:1058E000FC335A6B002A0CD01A6B2834A45C1A6B58
:1058F0000132D2B21A635A6B013A5A6306F0CEFDF6
:0C590000E9E701246442F9E75815002093
:10590C00802210B50400520000210AF0D1FE2300C1
:0E591C000022FC335A6020009A60DA6010BD51
:10592A0010B542680368086854100019D20701D5F7
:08593A000268D358984710BD24
:0C59420010B501000430FFF7EFFF10BDAE
:1059500010B5024BC3601CC91CC010BD8C73011074
:1059600010B586B00400684603910092436004AB12
:1059700006C806C3200003A9FFF7EAFF200006B00F
:0259800010BD58
:0C59820013B50400FFF7EBFF200016BD7A
:105990009A2370B55B00C35C86B004000D00002B39
:1059A00036D18669002E04D1042007F001FAA061E7
:1059B0000660A369186800282CD1783007F0F8F940
:1059C00006002223E25E2023E15E2B0004F012FA9F
:1059D000A3691E602423E25E531C06D0A069262121
:1059E000635E0068032104F013FAA3691D68002DAB
:1059F0000ED00026094A3300210002A8FFF7C1FF9C
:105A00002800320002A903F071FF02A8FFF749FD48
:105A100006B070BD290003F0BDFEDBE75B5500104A
:085A200010B5FFF78EFF10BD69
:085A280010B5FFF7F9FF10BDF6
:105A3000F0B53A4B3A4DFA2685B00024083300936E
:105A40002B602023B6006C60AE6036486B61AC61A1
